{
	"remix1/Solidity/lesson4/lesson4.sol": {
		"Demo": {
			"abi": [
				{
					"inputs": [
						{
							"internalType": "string",
							"name": "newValueStr",
							"type": "string"
						}
					],
					"name": "demo",
					"outputs": [],
					"stateMutability": "nonpayable",
					"type": "function"
				},
				{
					"inputs": [
						{
							"internalType": "address",
							"name": "targetAddres",
							"type": "address"
						}
					],
					"name": "getBalance",
					"outputs": [
						{
							"internalType": "uint256",
							"name": "",
							"type": "uint256"
						}
					],
					"stateMutability": "view",
					"type": "function"
				},
				{
					"inputs": [],
					"name": "myAddr",
					"outputs": [
						{
							"internalType": "address",
							"name": "",
							"type": "address"
						}
					],
					"stateMutability": "view",
					"type": "function"
				},
				{
					"inputs": [],
					"name": "myStr",
					"outputs": [
						{
							"internalType": "string",
							"name": "",
							"type": "string"
						}
					],
					"stateMutability": "view",
					"type": "function"
				},
				{
					"inputs": [
						{
							"internalType": "address",
							"name": "",
							"type": "address"
						}
					],
					"name": "payments",
					"outputs": [
						{
							"internalType": "uint256",
							"name": "",
							"type": "uint256"
						}
					],
					"stateMutability": "view",
					"type": "function"
				},
				{
					"inputs": [],
					"name": "receiveFunds",
					"outputs": [],
					"stateMutability": "payable",
					"type": "function"
				},
				{
					"inputs": [
						{
							"internalType": "address",
							"name": "targetAddr",
							"type": "address"
						},
						{
							"internalType": "uint256",
							"name": "amount",
							"type": "uint256"
						}
					],
					"name": "transferTo",
					"outputs": [],
					"stateMutability": "nonpayable",
					"type": "function"
				}
			],
			"devdoc": {
				"kind": "dev",
				"methods": {},
				"version": 1
			},
			"evm": {
				"assembly": "    /* \"remix1/Solidity/lesson4/lesson4.sol\":88:937  contract Demo {... */\n  mstore(0x40, 0x80)\n    /* \"remix1/Solidity/lesson4/lesson4.sol\":156:184  string public myStr = \"test\" */\n  mload(0x40)\n  dup1\n  0x40\n  add\n  0x40\n  mstore\n  dup1\n  0x04\n  dup2\n  mstore\n  0x20\n  add\n  0x7465737400000000000000000000000000000000000000000000000000000000\n  dup2\n  mstore\n  pop\n  0x01\n  swap1\n  dup2\n  tag_1\n  swap2\n  swap1\n  tag_2\n  jump\t// in\ntag_1:\n  pop\n    /* \"remix1/Solidity/lesson4/lesson4.sol\":225:267  0x78731D3Ca6b7E34aC0F824c42a7cC18A495cabaB */\n  0x78731d3ca6b7e34ac0f824c42a7cc18a495cabab\n    /* \"remix1/Solidity/lesson4/lesson4.sol\":201:267  address public myAddr = 0x78731D3Ca6b7E34aC0F824c42a7cC18A495cabaB */\n  0x02\n  exp(0x0100, 0x00)\n  dup2\n  sload\n  dup2\n  0xffffffffffffffffffffffffffffffffffffffff\n  mul\n  not\n  and\n  swap1\n  dup4\n  0xffffffffffffffffffffffffffffffffffffffff\n  and\n  mul\n  or\n  swap1\n  sstore\n  pop\n    /* \"remix1/Solidity/lesson4/lesson4.sol\":88:937  contract Demo {... */\n  callvalue\n  dup1\n  iszero\n  tag_3\n  jumpi\n  0x00\n  dup1\n  revert\ntag_3:\n  pop\n  jump(tag_4)\n    /* \"#utility.yul\":7:106   */\ntag_5:\n    /* \"#utility.yul\":59:65   */\n  0x00\n    /* \"#utility.yul\":93:98   */\n  dup2\n    /* \"#utility.yul\":87:99   */\n  mload\n    /* \"#utility.yul\":77:99   */\n  swap1\n  pop\n    /* \"#utility.yul\":7:106   */\n  swap2\n  swap1\n  pop\n  jump\t// out\n    /* \"#utility.yul\":112:292   */\ntag_6:\n    /* \"#utility.yul\":160:237   */\n  0x4e487b7100000000000000000000000000000000000000000000000000000000\n    /* \"#utility.yul\":157:158   */\n  0x00\n    /* \"#utility.yul\":150:238   */\n  mstore\n    /* \"#utility.yul\":257:261   */\n  0x41\n    /* \"#utility.yul\":254:255   */\n  0x04\n    /* \"#utility.yul\":247:262   */\n  mstore\n    /* \"#utility.yul\":281:285   */\n  0x24\n    /* \"#utility.yul\":278:279   */\n  0x00\n    /* \"#utility.yul\":271:286   */\n  revert\n    /* \"#utility.yul\":298:478   */\ntag_7:\n    /* \"#utility.yul\":346:423   */\n  0x4e487b7100000000000000000000000000000000000000000000000000000000\n    /* \"#utility.yul\":343:344   */\n  0x00\n    /* \"#utility.yul\":336:424   */\n  mstore\n    /* \"#utility.yul\":443:447   */\n  0x22\n    /* \"#utility.yul\":440:441   */\n  0x04\n    /* \"#utility.yul\":433:448   */\n  mstore\n    /* \"#utility.yul\":467:471   */\n  0x24\n    /* \"#utility.yul\":464:465   */\n  0x00\n    /* \"#utility.yul\":457:472   */\n  revert\n    /* \"#utility.yul\":484:804   */\ntag_8:\n    /* \"#utility.yul\":528:534   */\n  0x00\n    /* \"#utility.yul\":565:566   */\n  0x02\n    /* \"#utility.yul\":559:563   */\n  dup3\n    /* \"#utility.yul\":555:567   */\n  div\n    /* \"#utility.yul\":545:567   */\n  swap1\n  pop\n    /* \"#utility.yul\":612:613   */\n  0x01\n    /* \"#utility.yul\":606:610   */\n  dup3\n    /* \"#utility.yul\":602:614   */\n  and\n    /* \"#utility.yul\":633:651   */\n  dup1\n    /* \"#utility.yul\":623:704   */\n  tag_30\n  jumpi\n    /* \"#utility.yul\":689:693   */\n  0x7f\n    /* \"#utility.yul\":681:687   */\n  dup3\n    /* \"#utility.yul\":677:694   */\n  and\n    /* \"#utility.yul\":667:694   */\n  swap2\n  pop\n    /* \"#utility.yul\":623:704   */\ntag_30:\n    /* \"#utility.yul\":751:753   */\n  0x20\n    /* \"#utility.yul\":743:749   */\n  dup3\n    /* \"#utility.yul\":740:754   */\n  lt\n    /* \"#utility.yul\":720:738   */\n  dup2\n    /* \"#utility.yul\":717:755   */\n  sub\n    /* \"#utility.yul\":714:798   */\n  tag_31\n  jumpi\n    /* \"#utility.yul\":770:788   */\n  tag_32\n  tag_7\n  jump\t// in\ntag_32:\n    /* \"#utility.yul\":714:798   */\ntag_31:\n    /* \"#utility.yul\":535:804   */\n  pop\n    /* \"#utility.yul\":484:804   */\n  swap2\n  swap1\n  pop\n  jump\t// out\n    /* \"#utility.yul\":810:951   */\ntag_9:\n    /* \"#utility.yul\":859:863   */\n  0x00\n    /* \"#utility.yul\":882:885   */\n  dup2\n    /* \"#utility.yul\":874:885   */\n  swap1\n  pop\n    /* \"#utility.yul\":905:908   */\n  dup2\n    /* \"#utility.yul\":902:903   */\n  0x00\n    /* \"#utility.yul\":895:909   */\n  mstore\n    /* \"#utility.yul\":939:943   */\n  0x20\n    /* \"#utility.yul\":936:937   */\n  0x00\n    /* \"#utility.yul\":926:944   */\n  keccak256\n    /* \"#utility.yul\":918:944   */\n  swap1\n  pop\n    /* \"#utility.yul\":810:951   */\n  swap2\n  swap1\n  pop\n  jump\t// out\n    /* \"#utility.yul\":957:1050   */\ntag_10:\n    /* \"#utility.yul\":994:1000   */\n  0x00\n    /* \"#utility.yul\":1041:1043   */\n  0x20\n    /* \"#utility.yul\":1036:1038   */\n  0x1f\n    /* \"#utility.yul\":1029:1034   */\n  dup4\n    /* \"#utility.yul\":1025:1039   */\n  add\n    /* \"#utility.yul\":1021:1044   */\n  div\n    /* \"#utility.yul\":1011:1044   */\n  swap1\n  pop\n    /* \"#utility.yul\":957:1050   */\n  swap2\n  swap1\n  pop\n  jump\t// out\n    /* \"#utility.yul\":1056:1163   */\ntag_11:\n    /* \"#utility.yul\":1100:1108   */\n  0x00\n    /* \"#utility.yul\":1150:1155   */\n  dup3\n    /* \"#utility.yul\":1144:1148   */\n  dup3\n    /* \"#utility.yul\":1140:1156   */\n  shl\n    /* \"#utility.yul\":1119:1156   */\n  swap1\n  pop\n    /* \"#utility.yul\":1056:1163   */\n  swap3\n  swap2\n  pop\n  pop\n  jump\t// out\n    /* \"#utility.yul\":1169:1562   */\ntag_12:\n    /* \"#utility.yul\":1238:1244   */\n  0x00\n    /* \"#utility.yul\":1288:1289   */\n  0x08\n    /* \"#utility.yul\":1276:1286   */\n  dup4\n    /* \"#utility.yul\":1272:1290   */\n  mul\n    /* \"#utility.yul\":1311:1408   */\n  tag_37\n    /* \"#utility.yul\":1341:1407   */\n  0xffffffffffffffffffffffffffffffffffffffffffffffffffffffffffffffff\n    /* \"#utility.yul\":1330:1339   */\n  dup3\n    /* \"#utility.yul\":1311:1408   */\n  tag_11\n  jump\t// in\ntag_37:\n    /* \"#utility.yul\":1429:1468   */\n  tag_38\n    /* \"#utility.yul\":1459:1467   */\n  dup7\n    /* \"#utility.yul\":1448:1457   */\n  dup4\n    /* \"#utility.yul\":1429:1468   */\n  tag_11\n  jump\t// in\ntag_38:\n    /* \"#utility.yul\":1417:1468   */\n  swap6\n  pop\n    /* \"#utility.yul\":1501:1505   */\n  dup1\n    /* \"#utility.yul\":1497:1506   */\n  not\n    /* \"#utility.yul\":1490:1495   */\n  dup5\n    /* \"#utility.yul\":1486:1507   */\n  and\n    /* \"#utility.yul\":1477:1507   */\n  swap4\n  pop\n    /* \"#utility.yul\":1550:1554   */\n  dup1\n    /* \"#utility.yul\":1540:1548   */\n  dup7\n    /* \"#utility.yul\":1536:1555   */\n  and\n    /* \"#utility.yul\":1529:1534   */\n  dup5\n    /* \"#utility.yul\":1526:1556   */\n  or\n    /* \"#utility.yul\":1516:1556   */\n  swap3\n  pop\n    /* \"#utility.yul\":1245:1562   */\n  pop\n  pop\n    /* \"#utility.yul\":1169:1562   */\n  swap4\n  swap3\n  pop\n  pop\n  pop\n  jump\t// out\n    /* \"#utility.yul\":1568:1645   */\ntag_13:\n    /* \"#utility.yul\":1605:1612   */\n  0x00\n    /* \"#utility.yul\":1634:1639   */\n  dup2\n    /* \"#utility.yul\":1623:1639   */\n  swap1\n  pop\n    /* \"#utility.yul\":1568:1645   */\n  swap2\n  swap1\n  pop\n  jump\t// out\n    /* \"#utility.yul\":1651:1711   */\ntag_14:\n    /* \"#utility.yul\":1679:1682   */\n  0x00\n    /* \"#utility.yul\":1700:1705   */\n  dup2\n    /* \"#utility.yul\":1693:1705   */\n  swap1\n  pop\n    /* \"#utility.yul\":1651:1711   */\n  swap2\n  swap1\n  pop\n  jump\t// out\n    /* \"#utility.yul\":1717:1859   */\ntag_15:\n    /* \"#utility.yul\":1767:1776   */\n  0x00\n    /* \"#utility.yul\":1800:1853   */\n  tag_42\n    /* \"#utility.yul\":1818:1852   */\n  tag_43\n    /* \"#utility.yul\":1827:1851   */\n  tag_44\n    /* \"#utility.yul\":1845:1850   */\n  dup5\n    /* \"#utility.yul\":1827:1851   */\n  tag_13\n  jump\t// in\ntag_44:\n    /* \"#utility.yul\":1818:1852   */\n  tag_14\n  jump\t// in\ntag_43:\n    /* \"#utility.yul\":1800:1853   */\n  tag_13\n  jump\t// in\ntag_42:\n    /* \"#utility.yul\":1787:1853   */\n  swap1\n  pop\n    /* \"#utility.yul\":1717:1859   */\n  swap2\n  swap1\n  pop\n  jump\t// out\n    /* \"#utility.yul\":1865:1940   */\ntag_16:\n    /* \"#utility.yul\":1908:1911   */\n  0x00\n    /* \"#utility.yul\":1929:1934   */\n  dup2\n    /* \"#utility.yul\":1922:1934   */\n  swap1\n  pop\n    /* \"#utility.yul\":1865:1940   */\n  swap2\n  swap1\n  pop\n  jump\t// out\n    /* \"#utility.yul\":1946:2215   */\ntag_17:\n    /* \"#utility.yul\":2056:2095   */\n  tag_47\n    /* \"#utility.yul\":2087:2094   */\n  dup4\n    /* \"#utility.yul\":2056:2095   */\n  tag_15\n  jump\t// in\ntag_47:\n    /* \"#utility.yul\":2117:2208   */\n  tag_48\n    /* \"#utility.yul\":2166:2207   */\n  tag_49\n    /* \"#utility.yul\":2190:2206   */\n  dup3\n    /* \"#utility.yul\":2166:2207   */\n  tag_16\n  jump\t// in\ntag_49:\n    /* \"#utility.yul\":2158:2164   */\n  dup5\n    /* \"#utility.yul\":2151:2155   */\n  dup5\n    /* \"#utility.yul\":2145:2156   */\n  sload\n    /* \"#utility.yul\":2117:2208   */\n  tag_12\n  jump\t// in\ntag_48:\n    /* \"#utility.yul\":2111:2115   */\n  dup3\n    /* \"#utility.yul\":2104:2209   */\n  sstore\n    /* \"#utility.yul\":2022:2215   */\n  pop\n    /* \"#utility.yul\":1946:2215   */\n  pop\n  pop\n  pop\n  jump\t// out\n    /* \"#utility.yul\":2221:2294   */\ntag_18:\n    /* \"#utility.yul\":2266:2269   */\n  0x00\n    /* \"#utility.yul\":2221:2294   */\n  swap1\n  jump\t// out\n    /* \"#utility.yul\":2300:2489   */\ntag_19:\n    /* \"#utility.yul\":2377:2409   */\n  tag_52\n  tag_18\n  jump\t// in\ntag_52:\n    /* \"#utility.yul\":2418:2483   */\n  tag_53\n    /* \"#utility.yul\":2476:2482   */\n  dup2\n    /* \"#utility.yul\":2468:2474   */\n  dup5\n    /* \"#utility.yul\":2462:2466   */\n  dup5\n    /* \"#utility.yul\":2418:2483   */\n  tag_17\n  jump\t// in\ntag_53:\n    /* \"#utility.yul\":2353:2489   */\n  pop\n    /* \"#utility.yul\":2300:2489   */\n  pop\n  pop\n  jump\t// out\n    /* \"#utility.yul\":2495:2681   */\ntag_20:\n    /* \"#utility.yul\":2555:2675   */\ntag_55:\n    /* \"#utility.yul\":2572:2575   */\n  dup2\n    /* \"#utility.yul\":2565:2570   */\n  dup2\n    /* \"#utility.yul\":2562:2576   */\n  lt\n    /* \"#utility.yul\":2555:2675   */\n  iszero\n  tag_57\n  jumpi\n    /* \"#utility.yul\":2626:2665   */\n  tag_58\n    /* \"#utility.yul\":2663:2664   */\n  0x00\n    /* \"#utility.yul\":2656:2661   */\n  dup3\n    /* \"#utility.yul\":2626:2665   */\n  tag_19\n  jump\t// in\ntag_58:\n    /* \"#utility.yul\":2599:2600   */\n  0x01\n    /* \"#utility.yul\":2592:2597   */\n  dup2\n    /* \"#utility.yul\":2588:2601   */\n  add\n    /* \"#utility.yul\":2579:2601   */\n  swap1\n  pop\n    /* \"#utility.yul\":2555:2675   */\n  jump(tag_55)\ntag_57:\n    /* \"#utility.yul\":2495:2681   */\n  pop\n  pop\n  jump\t// out\n    /* \"#utility.yul\":2687:3230   */\ntag_21:\n    /* \"#utility.yul\":2788:2790   */\n  0x1f\n    /* \"#utility.yul\":2783:2786   */\n  dup3\n    /* \"#utility.yul\":2780:2791   */\n  gt\n    /* \"#utility.yul\":2777:3223   */\n  iszero\n  tag_60\n  jumpi\n    /* \"#utility.yul\":2822:2860   */\n  tag_61\n    /* \"#utility.yul\":2854:2859   */\n  dup2\n    /* \"#utility.yul\":2822:2860   */\n  tag_9\n  jump\t// in\ntag_61:\n    /* \"#utility.yul\":2906:2935   */\n  tag_62\n    /* \"#utility.yul\":2924:2934   */\n  dup5\n    /* \"#utility.yul\":2906:2935   */\n  tag_10\n  jump\t// in\ntag_62:\n    /* \"#utility.yul\":2896:2904   */\n  dup2\n    /* \"#utility.yul\":2892:2936   */\n  add\n    /* \"#utility.yul\":3089:3091   */\n  0x20\n    /* \"#utility.yul\":3077:3087   */\n  dup6\n    /* \"#utility.yul\":3074:3092   */\n  lt\n    /* \"#utility.yul\":3071:3120   */\n  iszero\n  tag_63\n  jumpi\n    /* \"#utility.yul\":3110:3118   */\n  dup2\n    /* \"#utility.yul\":3095:3118   */\n  swap1\n  pop\n    /* \"#utility.yul\":3071:3120   */\ntag_63:\n    /* \"#utility.yul\":3133:3213   */\n  tag_64\n    /* \"#utility.yul\":3189:3211   */\n  tag_65\n    /* \"#utility.yul\":3207:3210   */\n  dup6\n    /* \"#utility.yul\":3189:3211   */\n  tag_10\n  jump\t// in\ntag_65:\n    /* \"#utility.yul\":3179:3187   */\n  dup4\n    /* \"#utility.yul\":3175:3212   */\n  add\n    /* \"#utility.yul\":3162:3173   */\n  dup3\n    /* \"#utility.yul\":3133:3213   */\n  tag_20\n  jump\t// in\ntag_64:\n    /* \"#utility.yul\":2792:3223   */\n  pop\n  pop\n    /* \"#utility.yul\":2777:3223   */\ntag_60:\n    /* \"#utility.yul\":2687:3230   */\n  pop\n  pop\n  pop\n  jump\t// out\n    /* \"#utility.yul\":3236:3353   */\ntag_22:\n    /* \"#utility.yul\":3290:3298   */\n  0x00\n    /* \"#utility.yul\":3340:3345   */\n  dup3\n    /* \"#utility.yul\":3334:3338   */\n  dup3\n    /* \"#utility.yul\":3330:3346   */\n  shr\n    /* \"#utility.yul\":3309:3346   */\n  swap1\n  pop\n    /* \"#utility.yul\":3236:3353   */\n  swap3\n  swap2\n  pop\n  pop\n  jump\t// out\n    /* \"#utility.yul\":3359:3528   */\ntag_23:\n    /* \"#utility.yul\":3403:3409   */\n  0x00\n    /* \"#utility.yul\":3436:3487   */\n  tag_68\n    /* \"#utility.yul\":3484:3485   */\n  0x00\n    /* \"#utility.yul\":3480:3486   */\n  not\n    /* \"#utility.yul\":3472:3477   */\n  dup5\n    /* \"#utility.yul\":3469:3470   */\n  0x08\n    /* \"#utility.yul\":3465:3478   */\n  mul\n    /* \"#utility.yul\":3436:3487   */\n  tag_22\n  jump\t// in\ntag_68:\n    /* \"#utility.yul\":3432:3488   */\n  not\n    /* \"#utility.yul\":3517:3521   */\n  dup1\n    /* \"#utility.yul\":3511:3515   */\n  dup4\n    /* \"#utility.yul\":3507:3522   */\n  and\n    /* \"#utility.yul\":3497:3522   */\n  swap2\n  pop\n    /* \"#utility.yul\":3410:3528   */\n  pop\n    /* \"#utility.yul\":3359:3528   */\n  swap3\n  swap2\n  pop\n  pop\n  jump\t// out\n    /* \"#utility.yul\":3533:3828   */\ntag_24:\n    /* \"#utility.yul\":3609:3613   */\n  0x00\n    /* \"#utility.yul\":3755:3784   */\n  tag_70\n    /* \"#utility.yul\":3780:3783   */\n  dup4\n    /* \"#utility.yul\":3774:3778   */\n  dup4\n    /* \"#utility.yul\":3755:3784   */\n  tag_23\n  jump\t// in\ntag_70:\n    /* \"#utility.yul\":3747:3784   */\n  swap2\n  pop\n    /* \"#utility.yul\":3817:3820   */\n  dup3\n    /* \"#utility.yul\":3814:3815   */\n  0x02\n    /* \"#utility.yul\":3810:3821   */\n  mul\n    /* \"#utility.yul\":3804:3808   */\n  dup3\n    /* \"#utility.yul\":3801:3822   */\n  or\n    /* \"#utility.yul\":3793:3822   */\n  swap1\n  pop\n    /* \"#utility.yul\":3533:3828   */\n  swap3\n  swap2\n  pop\n  pop\n  jump\t// out\n    /* \"#utility.yul\":3833:5228   */\ntag_2:\n    /* \"#utility.yul\":3950:3987   */\n  tag_72\n    /* \"#utility.yul\":3983:3986   */\n  dup3\n    /* \"#utility.yul\":3950:3987   */\n  tag_5\n  jump\t// in\ntag_72:\n    /* \"#utility.yul\":4052:4070   */\n  0xffffffffffffffff\n    /* \"#utility.yul\":4044:4050   */\n  dup2\n    /* \"#utility.yul\":4041:4071   */\n  gt\n    /* \"#utility.yul\":4038:4094   */\n  iszero\n  tag_73\n  jumpi\n    /* \"#utility.yul\":4074:4092   */\n  tag_74\n  tag_6\n  jump\t// in\ntag_74:\n    /* \"#utility.yul\":4038:4094   */\ntag_73:\n    /* \"#utility.yul\":4118:4156   */\n  tag_75\n    /* \"#utility.yul\":4150:4154   */\n  dup3\n    /* \"#utility.yul\":4144:4155   */\n  sload\n    /* \"#utility.yul\":4118:4156   */\n  tag_8\n  jump\t// in\ntag_75:\n    /* \"#utility.yul\":4203:4270   */\n  tag_76\n    /* \"#utility.yul\":4263:4269   */\n  dup3\n    /* \"#utility.yul\":4255:4261   */\n  dup3\n    /* \"#utility.yul\":4249:4253   */\n  dup6\n    /* \"#utility.yul\":4203:4270   */\n  tag_21\n  jump\t// in\ntag_76:\n    /* \"#utility.yul\":4297:4298   */\n  0x00\n    /* \"#utility.yul\":4321:4325   */\n  0x20\n    /* \"#utility.yul\":4308:4325   */\n  swap1\n  pop\n    /* \"#utility.yul\":4353:4355   */\n  0x1f\n    /* \"#utility.yul\":4345:4351   */\n  dup4\n    /* \"#utility.yul\":4342:4356   */\n  gt\n    /* \"#utility.yul\":4370:4371   */\n  0x01\n    /* \"#utility.yul\":4365:4983   */\n  dup2\n  eq\n  tag_78\n  jumpi\n    /* \"#utility.yul\":5027:5028   */\n  0x00\n    /* \"#utility.yul\":5044:5050   */\n  dup5\n    /* \"#utility.yul\":5041:5118   */\n  iszero\n  tag_79\n  jumpi\n    /* \"#utility.yul\":5093:5102   */\n  dup3\n    /* \"#utility.yul\":5088:5091   */\n  dup8\n    /* \"#utility.yul\":5084:5103   */\n  add\n    /* \"#utility.yul\":5078:5104   */\n  mload\n    /* \"#utility.yul\":5069:5104   */\n  swap1\n  pop\n    /* \"#utility.yul\":5041:5118   */\ntag_79:\n    /* \"#utility.yul\":5144:5211   */\n  tag_80\n    /* \"#utility.yul\":5204:5210   */\n  dup6\n    /* \"#utility.yul\":5197:5202   */\n  dup3\n    /* \"#utility.yul\":5144:5211   */\n  tag_24\n  jump\t// in\ntag_80:\n    /* \"#utility.yul\":5138:5142   */\n  dup7\n    /* \"#utility.yul\":5131:5212   */\n  sstore\n    /* \"#utility.yul\":5000:5222   */\n  pop\n    /* \"#utility.yul\":4335:5222   */\n  jump(tag_77)\n    /* \"#utility.yul\":4365:4983   */\ntag_78:\n    /* \"#utility.yul\":4417:4421   */\n  0x1f\n    /* \"#utility.yul\":4413:4422   */\n  not\n    /* \"#utility.yul\":4405:4411   */\n  dup5\n    /* \"#utility.yul\":4401:4423   */\n  and\n    /* \"#utility.yul\":4451:4488   */\n  tag_81\n    /* \"#utility.yul\":4483:4487   */\n  dup7\n    /* \"#utility.yul\":4451:4488   */\n  tag_9\n  jump\t// in\ntag_81:\n    /* \"#utility.yul\":4510:4511   */\n  0x00\n    /* \"#utility.yul\":4524:4732   */\ntag_82:\n    /* \"#utility.yul\":4538:4545   */\n  dup3\n    /* \"#utility.yul\":4535:4536   */\n  dup2\n    /* \"#utility.yul\":4532:4546   */\n  lt\n    /* \"#utility.yul\":4524:4732   */\n  iszero\n  tag_84\n  jumpi\n    /* \"#utility.yul\":4617:4626   */\n  dup5\n    /* \"#utility.yul\":4612:4615   */\n  dup10\n    /* \"#utility.yul\":4608:4627   */\n  add\n    /* \"#utility.yul\":4602:4628   */\n  mload\n    /* \"#utility.yul\":4594:4600   */\n  dup3\n    /* \"#utility.yul\":4587:4629   */\n  sstore\n    /* \"#utility.yul\":4668:4669   */\n  0x01\n    /* \"#utility.yul\":4660:4666   */\n  dup3\n    /* \"#utility.yul\":4656:4670   */\n  add\n    /* \"#utility.yul\":4646:4670   */\n  swap2\n  pop\n    /* \"#utility.yul\":4715:4717   */\n  0x20\n    /* \"#utility.yul\":4704:4713   */\n  dup6\n    /* \"#utility.yul\":4700:4718   */\n  add\n    /* \"#utility.yul\":4687:4718   */\n  swap5\n  pop\n    /* \"#utility.yul\":4561:4565   */\n  0x20\n    /* \"#utility.yul\":4558:4559   */\n  dup2\n    /* \"#utility.yul\":4554:4566   */\n  add\n    /* \"#utility.yul\":4549:4566   */\n  swap1\n  pop\n    /* \"#utility.yul\":4524:4732   */\n  jump(tag_82)\ntag_84:\n    /* \"#utility.yul\":4760:4766   */\n  dup7\n    /* \"#utility.yul\":4751:4758   */\n  dup4\n    /* \"#utility.yul\":4748:4767   */\n  lt\n    /* \"#utility.yul\":4745:4924   */\n  iszero\n  tag_85\n  jumpi\n    /* \"#utility.yul\":4818:4827   */\n  dup5\n    /* \"#utility.yul\":4813:4816   */\n  dup10\n    /* \"#utility.yul\":4809:4828   */\n  add\n    /* \"#utility.yul\":4803:4829   */\n  mload\n    /* \"#utility.yul\":4861:4909   */\n  tag_86\n    /* \"#utility.yul\":4903:4907   */\n  0x1f\n    /* \"#utility.yul\":4895:4901   */\n  dup10\n    /* \"#utility.yul\":4891:4908   */\n  and\n    /* \"#utility.yul\":4880:4889   */\n  dup3\n    /* \"#utility.yul\":4861:4909   */\n  tag_23\n  jump\t// in\ntag_86:\n    /* \"#utility.yul\":4853:4859   */\n  dup4\n    /* \"#utility.yul\":4846:4910   */\n  sstore\n    /* \"#utility.yul\":4768:4924   */\n  pop\n    /* \"#utility.yul\":4745:4924   */\ntag_85:\n    /* \"#utility.yul\":4970:4971   */\n  0x01\n    /* \"#utility.yul\":4966:4967   */\n  0x02\n    /* \"#utility.yul\":4958:4964   */\n  dup9\n    /* \"#utility.yul\":4954:4968   */\n  mul\n    /* \"#utility.yul\":4950:4972   */\n  add\n    /* \"#utility.yul\":4944:4948   */\n  dup9\n    /* \"#utility.yul\":4937:4973   */\n  sstore\n    /* \"#utility.yul\":4372:4983   */\n  pop\n  pop\n  pop\n    /* \"#utility.yul\":4335:5222   */\ntag_77:\n  pop\n    /* \"#utility.yul\":3925:5228   */\n  pop\n  pop\n  pop\n    /* \"#utility.yul\":3833:5228   */\n  pop\n  pop\n  jump\t// out\n    /* \"remix1/Solidity/lesson4/lesson4.sol\":88:937  contract Demo {... */\ntag_4:\n  dataSize(sub_0)\n  dup1\n  dataOffset(sub_0)\n  0x00\n  codecopy\n  0x00\n  return\nstop\n\nsub_0: assembly {\n        /* \"remix1/Solidity/lesson4/lesson4.sol\":88:937  contract Demo {... */\n      mstore(0x40, 0x80)\n      jumpi(tag_1, lt(calldatasize, 0x04))\n      shr(0xe0, calldataload(0x00))\n      dup1\n      0x939a79ac\n      gt\n      tag_9\n      jumpi\n      dup1\n      0x939a79ac\n      eq\n      tag_5\n      jumpi\n      dup1\n      0xe2982c21\n      eq\n      tag_6\n      jumpi\n      dup1\n      0xe665b266\n      eq\n      tag_7\n      jumpi\n      dup1\n      0xf8b2cb4f\n      eq\n      tag_8\n      jumpi\n      jump(tag_1)\n    tag_9:\n      dup1\n      0x5c33e1\n      eq\n      tag_2\n      jumpi\n      dup1\n      0x2ccb1b30\n      eq\n      tag_3\n      jumpi\n      dup1\n      0x5a455c1c\n      eq\n      tag_4\n      jumpi\n    tag_1:\n      0x00\n      dup1\n      revert\n        /* \"remix1/Solidity/lesson4/lesson4.sol\":306:394  function receiveFunds() public payable {... */\n    tag_2:\n      tag_10\n      tag_11\n      jump\t// in\n    tag_10:\n      stop\n        /* \"remix1/Solidity/lesson4/lesson4.sol\":400:548  function transferTo(address targetAddr, uint amount) public {... */\n    tag_3:\n      callvalue\n      dup1\n      iszero\n      tag_12\n      jumpi\n      0x00\n      dup1\n      revert\n    tag_12:\n      pop\n      tag_13\n      0x04\n      dup1\n      calldatasize\n      sub\n      dup2\n      add\n      swap1\n      tag_14\n      swap2\n      swap1\n      tag_15\n      jump\t// in\n    tag_14:\n      tag_16\n      jump\t// in\n    tag_13:\n      stop\n        /* \"remix1/Solidity/lesson4/lesson4.sol\":156:184  string public myStr = \"test\" */\n    tag_4:\n      callvalue\n      dup1\n      iszero\n      tag_17\n      jumpi\n      0x00\n      dup1\n      revert\n    tag_17:\n      pop\n      tag_18\n      tag_19\n      jump\t// in\n    tag_18:\n      mload(0x40)\n      tag_20\n      swap2\n      swap1\n      tag_21\n      jump\t// in\n    tag_20:\n      mload(0x40)\n      dup1\n      swap2\n      sub\n      swap1\n      return\n        /* \"remix1/Solidity/lesson4/lesson4.sol\":749:934  function demo(string memory newValueStr) public { // передали переменную в функцию... */\n    tag_5:\n      callvalue\n      dup1\n      iszero\n      tag_22\n      jumpi\n      0x00\n      dup1\n      revert\n    tag_22:\n      pop\n      tag_23\n      0x04\n      dup1\n      calldatasize\n      sub\n      dup2\n      add\n      swap1\n      tag_24\n      swap2\n      swap1\n      tag_25\n      jump\t// in\n    tag_24:\n      tag_26\n      jump\t// in\n    tag_23:\n      stop\n        /* \"remix1/Solidity/lesson4/lesson4.sol\":108:149  mapping (address => uint) public payments */\n    tag_6:\n      callvalue\n      dup1\n      iszero\n      tag_27\n      jumpi\n      0x00\n      dup1\n      revert\n    tag_27:\n      pop\n      tag_28\n      0x04\n      dup1\n      calldatasize\n      sub\n      dup2\n      add\n      swap1\n      tag_29\n      swap2\n      swap1\n      tag_30\n      jump\t// in\n    tag_29:\n      tag_31\n      jump\t// in\n    tag_28:\n      mload(0x40)\n      tag_32\n      swap2\n      swap1\n      tag_33\n      jump\t// in\n    tag_32:\n      mload(0x40)\n      dup1\n      swap2\n      sub\n      swap1\n      return\n        /* \"remix1/Solidity/lesson4/lesson4.sol\":201:267  address public myAddr = 0x78731D3Ca6b7E34aC0F824c42a7cC18A495cabaB */\n    tag_7:\n      callvalue\n      dup1\n      iszero\n      tag_34\n      jumpi\n      0x00\n      dup1\n      revert\n    tag_34:\n      pop\n      tag_35\n      tag_36\n      jump\t// in\n    tag_35:\n      mload(0x40)\n      tag_37\n      swap2\n      swap1\n      tag_38\n      jump\t// in\n    tag_37:\n      mload(0x40)\n      dup1\n      swap2\n      sub\n      swap1\n      return\n        /* \"remix1/Solidity/lesson4/lesson4.sol\":558:743  function getBalance(address targetAddres) public view returns(uint) { //получаем баланс на запрошенном адресе... */\n    tag_8:\n      callvalue\n      dup1\n      iszero\n      tag_39\n      jumpi\n      0x00\n      dup1\n      revert\n    tag_39:\n      pop\n      tag_40\n      0x04\n      dup1\n      calldatasize\n      sub\n      dup2\n      add\n      swap1\n      tag_41\n      swap2\n      swap1\n      tag_30\n      jump\t// in\n    tag_41:\n      tag_42\n      jump\t// in\n    tag_40:\n      mload(0x40)\n      tag_43\n      swap2\n      swap1\n      tag_33\n      jump\t// in\n    tag_43:\n      mload(0x40)\n      dup1\n      swap2\n      sub\n      swap1\n      return\n        /* \"remix1/Solidity/lesson4/lesson4.sol\":306:394  function receiveFunds() public payable {... */\n    tag_11:\n        /* \"remix1/Solidity/lesson4/lesson4.sol\":378:387  msg.value */\n      callvalue\n        /* \"remix1/Solidity/lesson4/lesson4.sol\":355:363  payments */\n      0x00\n        /* \"remix1/Solidity/lesson4/lesson4.sol\":355:375  payments[msg.sender] */\n      dup1\n        /* \"remix1/Solidity/lesson4/lesson4.sol\":364:374  msg.sender */\n      caller\n        /* \"remix1/Solidity/lesson4/lesson4.sol\":355:375  payments[msg.sender] */\n      0xffffffffffffffffffffffffffffffffffffffff\n      and\n      0xffffffffffffffffffffffffffffffffffffffff\n      and\n      dup2\n      mstore\n      0x20\n      add\n      swap1\n      dup2\n      mstore\n      0x20\n      add\n      0x00\n      keccak256\n        /* \"remix1/Solidity/lesson4/lesson4.sol\":355:387  payments[msg.sender] = msg.value */\n      dup2\n      swap1\n      sstore\n      pop\n        /* \"remix1/Solidity/lesson4/lesson4.sol\":306:394  function receiveFunds() public payable {... */\n      jump\t// out\n        /* \"remix1/Solidity/lesson4/lesson4.sol\":400:548  function transferTo(address targetAddr, uint amount) public {... */\n    tag_16:\n        /* \"remix1/Solidity/lesson4/lesson4.sol\":470:489  address payable _to */\n      0x00\n        /* \"remix1/Solidity/lesson4/lesson4.sol\":500:510  targetAddr */\n      dup3\n        /* \"remix1/Solidity/lesson4/lesson4.sol\":470:511  address payable _to = payable(targetAddr) */\n      swap1\n      pop\n        /* \"remix1/Solidity/lesson4/lesson4.sol\":521:524  _to */\n      dup1\n        /* \"remix1/Solidity/lesson4/lesson4.sol\":521:533  _to.transfer */\n      0xffffffffffffffffffffffffffffffffffffffff\n      and\n        /* \"remix1/Solidity/lesson4/lesson4.sol\":521:541  _to.transfer(amount) */\n      0x08fc\n        /* \"remix1/Solidity/lesson4/lesson4.sol\":534:540  amount */\n      dup4\n        /* \"remix1/Solidity/lesson4/lesson4.sol\":521:541  _to.transfer(amount) */\n      swap1\n      dup2\n      iszero\n      mul\n      swap1\n      mload(0x40)\n      0x00\n      mload(0x40)\n      dup1\n      dup4\n      sub\n      dup2\n      dup6\n      dup9\n      dup9\n      call\n      swap4\n      pop\n      pop\n      pop\n      pop\n      iszero\n      dup1\n      iszero\n      tag_47\n      jumpi\n      returndatasize\n      0x00\n      dup1\n      returndatacopy\n      revert(0x00, returndatasize)\n    tag_47:\n      pop\n        /* \"remix1/Solidity/lesson4/lesson4.sol\":460:548  {... */\n      pop\n        /* \"remix1/Solidity/lesson4/lesson4.sol\":400:548  function transferTo(address targetAddr, uint amount) public {... */\n      pop\n      pop\n      jump\t// out\n        /* \"remix1/Solidity/lesson4/lesson4.sol\":156:184  string public myStr = \"test\" */\n    tag_19:\n      0x01\n      dup1\n      sload\n      tag_48\n      swap1\n      tag_49\n      jump\t// in\n    tag_48:\n      dup1\n      0x1f\n      add\n      0x20\n      dup1\n      swap2\n      div\n      mul\n      0x20\n      add\n      mload(0x40)\n      swap1\n      dup2\n      add\n      0x40\n      mstore\n      dup1\n      swap3\n      swap2\n      swap1\n      dup2\n      dup2\n      mstore\n      0x20\n      add\n      dup3\n      dup1\n      sload\n      tag_50\n      swap1\n      tag_49\n      jump\t// in\n    tag_50:\n      dup1\n      iszero\n      tag_51\n      jumpi\n      dup1\n      0x1f\n      lt\n      tag_52\n      jumpi\n      0x0100\n      dup1\n      dup4\n      sload\n      div\n      mul\n      dup4\n      mstore\n      swap2\n      0x20\n      add\n      swap2\n      jump(tag_51)\n    tag_52:\n      dup3\n      add\n      swap2\n      swap1\n      0x00\n      mstore\n      keccak256(0x00, 0x20)\n      swap1\n    tag_53:\n      dup2\n      sload\n      dup2\n      mstore\n      swap1\n      0x01\n      add\n      swap1\n      0x20\n      add\n      dup1\n      dup4\n      gt\n      tag_53\n      jumpi\n      dup3\n      swap1\n      sub\n      0x1f\n      and\n      dup3\n      add\n      swap2\n    tag_51:\n      pop\n      pop\n      pop\n      pop\n      pop\n      dup2\n      jump\t// out\n        /* \"remix1/Solidity/lesson4/lesson4.sol\":749:934  function demo(string memory newValueStr) public { // передали переменную в функцию... */\n    tag_26:\n        /* \"remix1/Solidity/lesson4/lesson4.sol\":866:889  string memory myTempStr */\n      0x00\n        /* \"remix1/Solidity/lesson4/lesson4.sol\":866:898  string memory myTempStr = \"temp\" */\n      mload(0x40)\n      dup1\n      0x40\n      add\n      0x40\n      mstore\n      dup1\n      0x04\n      dup2\n      mstore\n      0x20\n      add\n      0x74656d7000000000000000000000000000000000000000000000000000000000\n      dup2\n      mstore\n      pop\n      swap1\n      pop\n        /* \"remix1/Solidity/lesson4/lesson4.sol\":908:927  myStr = \"new value\" */\n      mload(0x40)\n      dup1\n      0x40\n      add\n      0x40\n      mstore\n      dup1\n      0x09\n      dup2\n      mstore\n      0x20\n      add\n      0x6e65772076616c75650000000000000000000000000000000000000000000000\n      dup2\n      mstore\n      pop\n        /* \"remix1/Solidity/lesson4/lesson4.sol\":908:913  myStr */\n      0x01\n        /* \"remix1/Solidity/lesson4/lesson4.sol\":908:927  myStr = \"new value\" */\n      swap1\n      dup2\n      tag_55\n      swap2\n      swap1\n      tag_56\n      jump\t// in\n    tag_55:\n      pop\n        /* \"remix1/Solidity/lesson4/lesson4.sol\":797:934  { // передали переменную в функцию... */\n      pop\n        /* \"remix1/Solidity/lesson4/lesson4.sol\":749:934  function demo(string memory newValueStr) public { // передали переменную в функцию... */\n      pop\n      jump\t// out\n        /* \"remix1/Solidity/lesson4/lesson4.sol\":108:149  mapping (address => uint) public payments */\n    tag_31:\n      mstore(0x20, 0x00)\n      dup1\n      0x00\n      mstore\n      keccak256(0x00, 0x40)\n      0x00\n      swap2\n      pop\n      swap1\n      pop\n      sload\n      dup2\n      jump\t// out\n        /* \"remix1/Solidity/lesson4/lesson4.sol\":201:267  address public myAddr = 0x78731D3Ca6b7E34aC0F824c42a7cC18A495cabaB */\n    tag_36:\n      0x02\n      0x00\n      swap1\n      sload\n      swap1\n      0x0100\n      exp\n      swap1\n      div\n      0xffffffffffffffffffffffffffffffffffffffff\n      and\n      dup2\n      jump\t// out\n        /* \"remix1/Solidity/lesson4/lesson4.sol\":558:743  function getBalance(address targetAddres) public view returns(uint) { //получаем баланс на запрошенном адресе... */\n    tag_42:\n        /* \"remix1/Solidity/lesson4/lesson4.sol\":620:624  uint */\n      0x00\n        /* \"remix1/Solidity/lesson4/lesson4.sol\":716:728  targetAddres */\n      dup2\n        /* \"remix1/Solidity/lesson4/lesson4.sol\":716:736  targetAddres.balance */\n      0xffffffffffffffffffffffffffffffffffffffff\n      and\n      balance\n        /* \"remix1/Solidity/lesson4/lesson4.sol\":709:736  return targetAddres.balance */\n      swap1\n      pop\n        /* \"remix1/Solidity/lesson4/lesson4.sol\":558:743  function getBalance(address targetAddres) public view returns(uint) { //получаем баланс на запрошенном адресе... */\n      swap2\n      swap1\n      pop\n      jump\t// out\n        /* \"#utility.yul\":7:82   */\n    tag_58:\n        /* \"#utility.yul\":40:46   */\n      0x00\n        /* \"#utility.yul\":73:75   */\n      0x40\n        /* \"#utility.yul\":67:76   */\n      mload\n        /* \"#utility.yul\":57:76   */\n      swap1\n      pop\n        /* \"#utility.yul\":7:82   */\n      swap1\n      jump\t// out\n        /* \"#utility.yul\":88:205   */\n    tag_59:\n        /* \"#utility.yul\":197:198   */\n      0x00\n        /* \"#utility.yul\":194:195   */\n      dup1\n        /* \"#utility.yul\":187:199   */\n      revert\n        /* \"#utility.yul\":211:328   */\n    tag_60:\n        /* \"#utility.yul\":320:321   */\n      0x00\n        /* \"#utility.yul\":317:318   */\n      dup1\n        /* \"#utility.yul\":310:322   */\n      revert\n        /* \"#utility.yul\":334:460   */\n    tag_61:\n        /* \"#utility.yul\":371:378   */\n      0x00\n        /* \"#utility.yul\":411:453   */\n      0xffffffffffffffffffffffffffffffffffffffff\n        /* \"#utility.yul\":404:409   */\n      dup3\n        /* \"#utility.yul\":400:454   */\n      and\n        /* \"#utility.yul\":389:454   */\n      swap1\n      pop\n        /* \"#utility.yul\":334:460   */\n      swap2\n      swap1\n      pop\n      jump\t// out\n        /* \"#utility.yul\":466:562   */\n    tag_62:\n        /* \"#utility.yul\":503:510   */\n      0x00\n        /* \"#utility.yul\":532:556   */\n      tag_106\n        /* \"#utility.yul\":550:555   */\n      dup3\n        /* \"#utility.yul\":532:556   */\n      tag_61\n      jump\t// in\n    tag_106:\n        /* \"#utility.yul\":521:556   */\n      swap1\n      pop\n        /* \"#utility.yul\":466:562   */\n      swap2\n      swap1\n      pop\n      jump\t// out\n        /* \"#utility.yul\":568:690   */\n    tag_63:\n        /* \"#utility.yul\":641:665   */\n      tag_108\n        /* \"#utility.yul\":659:664   */\n      dup2\n        /* \"#utility.yul\":641:665   */\n      tag_62\n      jump\t// in\n    tag_108:\n        /* \"#utility.yul\":634:639   */\n      dup2\n        /* \"#utility.yul\":631:666   */\n      eq\n        /* \"#utility.yul\":621:684   */\n      tag_109\n      jumpi\n        /* \"#utility.yul\":680:681   */\n      0x00\n        /* \"#utility.yul\":677:678   */\n      dup1\n        /* \"#utility.yul\":670:682   */\n      revert\n        /* \"#utility.yul\":621:684   */\n    tag_109:\n        /* \"#utility.yul\":568:690   */\n      pop\n      jump\t// out\n        /* \"#utility.yul\":696:835   */\n    tag_64:\n        /* \"#utility.yul\":742:747   */\n      0x00\n        /* \"#utility.yul\":780:786   */\n      dup2\n        /* \"#utility.yul\":767:787   */\n      calldataload\n        /* \"#utility.yul\":758:787   */\n      swap1\n      pop\n        /* \"#utility.yul\":796:829   */\n      tag_111\n        /* \"#utility.yul\":823:828   */\n      dup2\n        /* \"#utility.yul\":796:829   */\n      tag_63\n      jump\t// in\n    tag_111:\n        /* \"#utility.yul\":696:835   */\n      swap3\n      swap2\n      pop\n      pop\n      jump\t// out\n        /* \"#utility.yul\":841:918   */\n    tag_65:\n        /* \"#utility.yul\":878:885   */\n      0x00\n        /* \"#utility.yul\":907:912   */\n      dup2\n        /* \"#utility.yul\":896:912   */\n      swap1\n      pop\n        /* \"#utility.yul\":841:918   */\n      swap2\n      swap1\n      pop\n      jump\t// out\n        /* \"#utility.yul\":924:1046   */\n    tag_66:\n        /* \"#utility.yul\":997:1021   */\n      tag_114\n        /* \"#utility.yul\":1015:1020   */\n      dup2\n        /* \"#utility.yul\":997:1021   */\n      tag_65\n      jump\t// in\n    tag_114:\n        /* \"#utility.yul\":990:995   */\n      dup2\n        /* \"#utility.yul\":987:1022   */\n      eq\n        /* \"#utility.yul\":977:1040   */\n      tag_115\n      jumpi\n        /* \"#utility.yul\":1036:1037   */\n      0x00\n        /* \"#utility.yul\":1033:1034   */\n      dup1\n        /* \"#utility.yul\":1026:1038   */\n      revert\n        /* \"#utility.yul\":977:1040   */\n    tag_115:\n        /* \"#utility.yul\":924:1046   */\n      pop\n      jump\t// out\n        /* \"#utility.yul\":1052:1191   */\n    tag_67:\n        /* \"#utility.yul\":1098:1103   */\n      0x00\n        /* \"#utility.yul\":1136:1142   */\n      dup2\n        /* \"#utility.yul\":1123:1143   */\n      calldataload\n        /* \"#utility.yul\":1114:1143   */\n      swap1\n      pop\n        /* \"#utility.yul\":1152:1185   */\n      tag_117\n        /* \"#utility.yul\":1179:1184   */\n      dup2\n        /* \"#utility.yul\":1152:1185   */\n      tag_66\n      jump\t// in\n    tag_117:\n        /* \"#utility.yul\":1052:1191   */\n      swap3\n      swap2\n      pop\n      pop\n      jump\t// out\n        /* \"#utility.yul\":1197:1671   */\n    tag_15:\n        /* \"#utility.yul\":1265:1271   */\n      0x00\n        /* \"#utility.yul\":1273:1279   */\n      dup1\n        /* \"#utility.yul\":1322:1324   */\n      0x40\n        /* \"#utility.yul\":1310:1319   */\n      dup4\n        /* \"#utility.yul\":1301:1308   */\n      dup6\n        /* \"#utility.yul\":1297:1320   */\n      sub\n        /* \"#utility.yul\":1293:1325   */\n      slt\n        /* \"#utility.yul\":1290:1409   */\n      iszero\n      tag_119\n      jumpi\n        /* \"#utility.yul\":1328:1407   */\n      tag_120\n      tag_59\n      jump\t// in\n    tag_120:\n        /* \"#utility.yul\":1290:1409   */\n    tag_119:\n        /* \"#utility.yul\":1448:1449   */\n      0x00\n        /* \"#utility.yul\":1473:1526   */\n      tag_121\n        /* \"#utility.yul\":1518:1525   */\n      dup6\n        /* \"#utility.yul\":1509:1515   */\n      dup3\n        /* \"#utility.yul\":1498:1507   */\n      dup7\n        /* \"#utility.yul\":1494:1516   */\n      add\n        /* \"#utility.yul\":1473:1526   */\n      tag_64\n      jump\t// in\n    tag_121:\n        /* \"#utility.yul\":1463:1526   */\n      swap3\n      pop\n        /* \"#utility.yul\":1419:1536   */\n      pop\n        /* \"#utility.yul\":1575:1577   */\n      0x20\n        /* \"#utility.yul\":1601:1654   */\n      tag_122\n        /* \"#utility.yul\":1646:1653   */\n      dup6\n        /* \"#utility.yul\":1637:1643   */\n      dup3\n        /* \"#utility.yul\":1626:1635   */\n      dup7\n        /* \"#utility.yul\":1622:1644   */\n      add\n        /* \"#utility.yul\":1601:1654   */\n      tag_67\n      jump\t// in\n    tag_122:\n        /* \"#utility.yul\":1591:1654   */\n      swap2\n      pop\n        /* \"#utility.yul\":1546:1664   */\n      pop\n        /* \"#utility.yul\":1197:1671   */\n      swap3\n      pop\n      swap3\n      swap1\n      pop\n      jump\t// out\n        /* \"#utility.yul\":1677:1776   */\n    tag_68:\n        /* \"#utility.yul\":1729:1735   */\n      0x00\n        /* \"#utility.yul\":1763:1768   */\n      dup2\n        /* \"#utility.yul\":1757:1769   */\n      mload\n        /* \"#utility.yul\":1747:1769   */\n      swap1\n      pop\n        /* \"#utility.yul\":1677:1776   */\n      swap2\n      swap1\n      pop\n      jump\t// out\n        /* \"#utility.yul\":1782:1951   */\n    tag_69:\n        /* \"#utility.yul\":1866:1877   */\n      0x00\n        /* \"#utility.yul\":1900:1906   */\n      dup3\n        /* \"#utility.yul\":1895:1898   */\n      dup3\n        /* \"#utility.yul\":1888:1907   */\n      mstore\n        /* \"#utility.yul\":1940:1944   */\n      0x20\n        /* \"#utility.yul\":1935:1938   */\n      dup3\n        /* \"#utility.yul\":1931:1945   */\n      add\n        /* \"#utility.yul\":1916:1945   */\n      swap1\n      pop\n        /* \"#utility.yul\":1782:1951   */\n      swap3\n      swap2\n      pop\n      pop\n      jump\t// out\n        /* \"#utility.yul\":1957:2205   */\n    tag_70:\n        /* \"#utility.yul\":2039:2040   */\n      0x00\n        /* \"#utility.yul\":2049:2162   */\n    tag_126:\n        /* \"#utility.yul\":2063:2069   */\n      dup4\n        /* \"#utility.yul\":2060:2061   */\n      dup2\n        /* \"#utility.yul\":2057:2070   */\n      lt\n        /* \"#utility.yul\":2049:2162   */\n      iszero\n      tag_128\n      jumpi\n        /* \"#utility.yul\":2148:2149   */\n      dup1\n        /* \"#utility.yul\":2143:2146   */\n      dup3\n        /* \"#utility.yul\":2139:2150   */\n      add\n        /* \"#utility.yul\":2133:2151   */\n      mload\n        /* \"#utility.yul\":2129:2130   */\n      dup2\n        /* \"#utility.yul\":2124:2127   */\n      dup5\n        /* \"#utility.yul\":2120:2131   */\n      add\n        /* \"#utility.yul\":2113:2152   */\n      mstore\n        /* \"#utility.yul\":2085:2087   */\n      0x20\n        /* \"#utility.yul\":2082:2083   */\n      dup2\n        /* \"#utility.yul\":2078:2088   */\n      add\n        /* \"#utility.yul\":2073:2088   */\n      swap1\n      pop\n        /* \"#utility.yul\":2049:2162   */\n      jump(tag_126)\n    tag_128:\n        /* \"#utility.yul\":2196:2197   */\n      0x00\n        /* \"#utility.yul\":2187:2193   */\n      dup5\n        /* \"#utility.yul\":2182:2185   */\n      dup5\n        /* \"#utility.yul\":2178:2194   */\n      add\n        /* \"#utility.yul\":2171:2198   */\n      mstore\n        /* \"#utility.yul\":2019:2205   */\n      pop\n        /* \"#utility.yul\":1957:2205   */\n      pop\n      pop\n      pop\n      jump\t// out\n        /* \"#utility.yul\":2211:2313   */\n    tag_71:\n        /* \"#utility.yul\":2252:2258   */\n      0x00\n        /* \"#utility.yul\":2303:2305   */\n      0x1f\n        /* \"#utility.yul\":2299:2306   */\n      not\n        /* \"#utility.yul\":2294:2296   */\n      0x1f\n        /* \"#utility.yul\":2287:2292   */\n      dup4\n        /* \"#utility.yul\":2283:2297   */\n      add\n        /* \"#utility.yul\":2279:2307   */\n      and\n        /* \"#utility.yul\":2269:2307   */\n      swap1\n      pop\n        /* \"#utility.yul\":2211:2313   */\n      swap2\n      swap1\n      pop\n      jump\t// out\n        /* \"#utility.yul\":2319:2696   */\n    tag_72:\n        /* \"#utility.yul\":2407:2410   */\n      0x00\n        /* \"#utility.yul\":2435:2474   */\n      tag_131\n        /* \"#utility.yul\":2468:2473   */\n      dup3\n        /* \"#utility.yul\":2435:2474   */\n      tag_68\n      jump\t// in\n    tag_131:\n        /* \"#utility.yul\":2490:2561   */\n      tag_132\n        /* \"#utility.yul\":2554:2560   */\n      dup2\n        /* \"#utility.yul\":2549:2552   */\n      dup6\n        /* \"#utility.yul\":2490:2561   */\n      tag_69\n      jump\t// in\n    tag_132:\n        /* \"#utility.yul\":2483:2561   */\n      swap4\n      pop\n        /* \"#utility.yul\":2570:2635   */\n      tag_133\n        /* \"#utility.yul\":2628:2634   */\n      dup2\n        /* \"#utility.yul\":2623:2626   */\n      dup6\n        /* \"#utility.yul\":2616:2620   */\n      0x20\n        /* \"#utility.yul\":2609:2614   */\n      dup7\n        /* \"#utility.yul\":2605:2621   */\n      add\n        /* \"#utility.yul\":2570:2635   */\n      tag_70\n      jump\t// in\n    tag_133:\n        /* \"#utility.yul\":2660:2689   */\n      tag_134\n        /* \"#utility.yul\":2682:2688   */\n      dup2\n        /* \"#utility.yul\":2660:2689   */\n      tag_71\n      jump\t// in\n    tag_134:\n        /* \"#utility.yul\":2655:2658   */\n      dup5\n        /* \"#utility.yul\":2651:2690   */\n      add\n        /* \"#utility.yul\":2644:2690   */\n      swap2\n      pop\n        /* \"#utility.yul\":2411:2696   */\n      pop\n        /* \"#utility.yul\":2319:2696   */\n      swap3\n      swap2\n      pop\n      pop\n      jump\t// out\n        /* \"#utility.yul\":2702:3015   */\n    tag_21:\n        /* \"#utility.yul\":2815:2819   */\n      0x00\n        /* \"#utility.yul\":2853:2855   */\n      0x20\n        /* \"#utility.yul\":2842:2851   */\n      dup3\n        /* \"#utility.yul\":2838:2856   */\n      add\n        /* \"#utility.yul\":2830:2856   */\n      swap1\n      pop\n        /* \"#utility.yul\":2902:2911   */\n      dup2\n        /* \"#utility.yul\":2896:2900   */\n      dup2\n        /* \"#utility.yul\":2892:2912   */\n      sub\n        /* \"#utility.yul\":2888:2889   */\n      0x00\n        /* \"#utility.yul\":2877:2886   */\n      dup4\n        /* \"#utility.yul\":2873:2890   */\n      add\n        /* \"#utility.yul\":2866:2913   */\n      mstore\n        /* \"#utility.yul\":2930:3008   */\n      tag_136\n        /* \"#utility.yul\":3003:3007   */\n      dup2\n        /* \"#utility.yul\":2994:3000   */\n      dup5\n        /* \"#utility.yul\":2930:3008   */\n      tag_72\n      jump\t// in\n    tag_136:\n        /* \"#utility.yul\":2922:3008   */\n      swap1\n      pop\n        /* \"#utility.yul\":2702:3015   */\n      swap3\n      swap2\n      pop\n      pop\n      jump\t// out\n        /* \"#utility.yul\":3021:3138   */\n    tag_73:\n        /* \"#utility.yul\":3130:3131   */\n      0x00\n        /* \"#utility.yul\":3127:3128   */\n      dup1\n        /* \"#utility.yul\":3120:3132   */\n      revert\n        /* \"#utility.yul\":3144:3261   */\n    tag_74:\n        /* \"#utility.yul\":3253:3254   */\n      0x00\n        /* \"#utility.yul\":3250:3251   */\n      dup1\n        /* \"#utility.yul\":3243:3255   */\n      revert\n        /* \"#utility.yul\":3267:3447   */\n    tag_75:\n        /* \"#utility.yul\":3315:3392   */\n      0x4e487b7100000000000000000000000000000000000000000000000000000000\n        /* \"#utility.yul\":3312:3313   */\n      0x00\n        /* \"#utility.yul\":3305:3393   */\n      mstore\n        /* \"#utility.yul\":3412:3416   */\n      0x41\n        /* \"#utility.yul\":3409:3410   */\n      0x04\n        /* \"#utility.yul\":3402:3417   */\n      mstore\n        /* \"#utility.yul\":3436:3440   */\n      0x24\n        /* \"#utility.yul\":3433:3434   */\n      0x00\n        /* \"#utility.yul\":3426:3441   */\n      revert\n        /* \"#utility.yul\":3453:3734   */\n    tag_76:\n        /* \"#utility.yul\":3536:3563   */\n      tag_141\n        /* \"#utility.yul\":3558:3562   */\n      dup3\n        /* \"#utility.yul\":3536:3563   */\n      tag_71\n      jump\t// in\n    tag_141:\n        /* \"#utility.yul\":3528:3534   */\n      dup2\n        /* \"#utility.yul\":3524:3564   */\n      add\n        /* \"#utility.yul\":3666:3672   */\n      dup2\n        /* \"#utility.yul\":3654:3664   */\n      dup2\n        /* \"#utility.yul\":3651:3673   */\n      lt\n        /* \"#utility.yul\":3630:3648   */\n      0xffffffffffffffff\n        /* \"#utility.yul\":3618:3628   */\n      dup3\n        /* \"#utility.yul\":3615:3649   */\n      gt\n        /* \"#utility.yul\":3612:3674   */\n      or\n        /* \"#utility.yul\":3609:3697   */\n      iszero\n      tag_142\n      jumpi\n        /* \"#utility.yul\":3677:3695   */\n      tag_143\n      tag_75\n      jump\t// in\n    tag_143:\n        /* \"#utility.yul\":3609:3697   */\n    tag_142:\n        /* \"#utility.yul\":3717:3727   */\n      dup1\n        /* \"#utility.yul\":3713:3715   */\n      0x40\n        /* \"#utility.yul\":3706:3728   */\n      mstore\n        /* \"#utility.yul\":3496:3734   */\n      pop\n        /* \"#utility.yul\":3453:3734   */\n      pop\n      pop\n      jump\t// out\n        /* \"#utility.yul\":3740:3869   */\n    tag_77:\n        /* \"#utility.yul\":3774:3780   */\n      0x00\n        /* \"#utility.yul\":3801:3821   */\n      tag_145\n      tag_58\n      jump\t// in\n    tag_145:\n        /* \"#utility.yul\":3791:3821   */\n      swap1\n      pop\n        /* \"#utility.yul\":3830:3863   */\n      tag_146\n        /* \"#utility.yul\":3858:3862   */\n      dup3\n        /* \"#utility.yul\":3850:3856   */\n      dup3\n        /* \"#utility.yul\":3830:3863   */\n      tag_76\n      jump\t// in\n    tag_146:\n        /* \"#utility.yul\":3740:3869   */\n      swap2\n      swap1\n      pop\n      jump\t// out\n        /* \"#utility.yul\":3875:4183   */\n    tag_78:\n        /* \"#utility.yul\":3937:3941   */\n      0x00\n        /* \"#utility.yul\":4027:4045   */\n      0xffffffffffffffff\n        /* \"#utility.yul\":4019:4025   */\n      dup3\n        /* \"#utility.yul\":4016:4046   */\n      gt\n        /* \"#utility.yul\":4013:4069   */\n      iszero\n      tag_148\n      jumpi\n        /* \"#utility.yul\":4049:4067   */\n      tag_149\n      tag_75\n      jump\t// in\n    tag_149:\n        /* \"#utility.yul\":4013:4069   */\n    tag_148:\n        /* \"#utility.yul\":4087:4116   */\n      tag_150\n        /* \"#utility.yul\":4109:4115   */\n      dup3\n        /* \"#utility.yul\":4087:4116   */\n      tag_71\n      jump\t// in\n    tag_150:\n        /* \"#utility.yul\":4079:4116   */\n      swap1\n      pop\n        /* \"#utility.yul\":4171:4175   */\n      0x20\n        /* \"#utility.yul\":4165:4169   */\n      dup2\n        /* \"#utility.yul\":4161:4176   */\n      add\n        /* \"#utility.yul\":4153:4176   */\n      swap1\n      pop\n        /* \"#utility.yul\":3875:4183   */\n      swap2\n      swap1\n      pop\n      jump\t// out\n        /* \"#utility.yul\":4189:4337   */\n    tag_79:\n        /* \"#utility.yul\":4287:4293   */\n      dup3\n        /* \"#utility.yul\":4282:4285   */\n      dup2\n        /* \"#utility.yul\":4277:4280   */\n      dup4\n        /* \"#utility.yul\":4264:4294   */\n      calldatacopy\n        /* \"#utility.yul\":4328:4329   */\n      0x00\n        /* \"#utility.yul\":4319:4325   */\n      dup4\n        /* \"#utility.yul\":4314:4317   */\n      dup4\n        /* \"#utility.yul\":4310:4326   */\n      add\n        /* \"#utility.yul\":4303:4330   */\n      mstore\n        /* \"#utility.yul\":4189:4337   */\n      pop\n      pop\n      pop\n      jump\t// out\n        /* \"#utility.yul\":4343:4768   */\n    tag_80:\n        /* \"#utility.yul\":4421:4426   */\n      0x00\n        /* \"#utility.yul\":4446:4512   */\n      tag_153\n        /* \"#utility.yul\":4462:4511   */\n      tag_154\n        /* \"#utility.yul\":4504:4510   */\n      dup5\n        /* \"#utility.yul\":4462:4511   */\n      tag_78\n      jump\t// in\n    tag_154:\n        /* \"#utility.yul\":4446:4512   */\n      tag_77\n      jump\t// in\n    tag_153:\n        /* \"#utility.yul\":4437:4512   */\n      swap1\n      pop\n        /* \"#utility.yul\":4535:4541   */\n      dup3\n        /* \"#utility.yul\":4528:4533   */\n      dup2\n        /* \"#utility.yul\":4521:4542   */\n      mstore\n        /* \"#utility.yul\":4573:4577   */\n      0x20\n        /* \"#utility.yul\":4566:4571   */\n      dup2\n        /* \"#utility.yul\":4562:4578   */\n      add\n        /* \"#utility.yul\":4611:4614   */\n      dup5\n        /* \"#utility.yul\":4602:4608   */\n      dup5\n        /* \"#utility.yul\":4597:4600   */\n      dup5\n        /* \"#utility.yul\":4593:4609   */\n      add\n        /* \"#utility.yul\":4590:4615   */\n      gt\n        /* \"#utility.yul\":4587:4699   */\n      iszero\n      tag_155\n      jumpi\n        /* \"#utility.yul\":4618:4697   */\n      tag_156\n      tag_74\n      jump\t// in\n    tag_156:\n        /* \"#utility.yul\":4587:4699   */\n    tag_155:\n        /* \"#utility.yul\":4708:4762   */\n      tag_157\n        /* \"#utility.yul\":4755:4761   */\n      dup5\n        /* \"#utility.yul\":4750:4753   */\n      dup3\n        /* \"#utility.yul\":4745:4748   */\n      dup6\n        /* \"#utility.yul\":4708:4762   */\n      tag_79\n      jump\t// in\n    tag_157:\n        /* \"#utility.yul\":4427:4768   */\n      pop\n        /* \"#utility.yul\":4343:4768   */\n      swap4\n      swap3\n      pop\n      pop\n      pop\n      jump\t// out\n        /* \"#utility.yul\":4788:5128   */\n    tag_81:\n        /* \"#utility.yul\":4844:4849   */\n      0x00\n        /* \"#utility.yul\":4893:4896   */\n      dup3\n        /* \"#utility.yul\":4886:4890   */\n      0x1f\n        /* \"#utility.yul\":4878:4884   */\n      dup4\n        /* \"#utility.yul\":4874:4891   */\n      add\n        /* \"#utility.yul\":4870:4897   */\n      slt\n        /* \"#utility.yul\":4860:4982   */\n      tag_159\n      jumpi\n        /* \"#utility.yul\":4901:4980   */\n      tag_160\n      tag_73\n      jump\t// in\n    tag_160:\n        /* \"#utility.yul\":4860:4982   */\n    tag_159:\n        /* \"#utility.yul\":5018:5024   */\n      dup2\n        /* \"#utility.yul\":5005:5025   */\n      calldataload\n        /* \"#utility.yul\":5043:5122   */\n      tag_161\n        /* \"#utility.yul\":5118:5121   */\n      dup5\n        /* \"#utility.yul\":5110:5116   */\n      dup3\n        /* \"#utility.yul\":5103:5107   */\n      0x20\n        /* \"#utility.yul\":5095:5101   */\n      dup7\n        /* \"#utility.yul\":5091:5108   */\n      add\n        /* \"#utility.yul\":5043:5122   */\n      tag_80\n      jump\t// in\n    tag_161:\n        /* \"#utility.yul\":5034:5122   */\n      swap2\n      pop\n        /* \"#utility.yul\":4850:5128   */\n      pop\n        /* \"#utility.yul\":4788:5128   */\n      swap3\n      swap2\n      pop\n      pop\n      jump\t// out\n        /* \"#utility.yul\":5134:5643   */\n    tag_25:\n        /* \"#utility.yul\":5203:5209   */\n      0x00\n        /* \"#utility.yul\":5252:5254   */\n      0x20\n        /* \"#utility.yul\":5240:5249   */\n      dup3\n        /* \"#utility.yul\":5231:5238   */\n      dup5\n        /* \"#utility.yul\":5227:5250   */\n      sub\n        /* \"#utility.yul\":5223:5255   */\n      slt\n        /* \"#utility.yul\":5220:5339   */\n      iszero\n      tag_163\n      jumpi\n        /* \"#utility.yul\":5258:5337   */\n      tag_164\n      tag_59\n      jump\t// in\n    tag_164:\n        /* \"#utility.yul\":5220:5339   */\n    tag_163:\n        /* \"#utility.yul\":5406:5407   */\n      0x00\n        /* \"#utility.yul\":5395:5404   */\n      dup3\n        /* \"#utility.yul\":5391:5408   */\n      add\n        /* \"#utility.yul\":5378:5409   */\n      calldataload\n        /* \"#utility.yul\":5436:5454   */\n      0xffffffffffffffff\n        /* \"#utility.yul\":5428:5434   */\n      dup2\n        /* \"#utility.yul\":5425:5455   */\n      gt\n        /* \"#utility.yul\":5422:5539   */\n      iszero\n      tag_165\n      jumpi\n        /* \"#utility.yul\":5458:5537   */\n      tag_166\n      tag_60\n      jump\t// in\n    tag_166:\n        /* \"#utility.yul\":5422:5539   */\n    tag_165:\n        /* \"#utility.yul\":5563:5626   */\n      tag_167\n        /* \"#utility.yul\":5618:5625   */\n      dup5\n        /* \"#utility.yul\":5609:5615   */\n      dup3\n        /* \"#utility.yul\":5598:5607   */\n      dup6\n        /* \"#utility.yul\":5594:5616   */\n      add\n        /* \"#utility.yul\":5563:5626   */\n      tag_81\n      jump\t// in\n    tag_167:\n        /* \"#utility.yul\":5553:5626   */\n      swap2\n      pop\n        /* \"#utility.yul\":5349:5636   */\n      pop\n        /* \"#utility.yul\":5134:5643   */\n      swap3\n      swap2\n      pop\n      pop\n      jump\t// out\n        /* \"#utility.yul\":5649:5978   */\n    tag_30:\n        /* \"#utility.yul\":5708:5714   */\n      0x00\n        /* \"#utility.yul\":5757:5759   */\n      0x20\n        /* \"#utility.yul\":5745:5754   */\n      dup3\n        /* \"#utility.yul\":5736:5743   */\n      dup5\n        /* \"#utility.yul\":5732:5755   */\n      sub\n        /* \"#utility.yul\":5728:5760   */\n      slt\n        /* \"#utility.yul\":5725:5844   */\n      iszero\n      tag_169\n      jumpi\n        /* \"#utility.yul\":5763:5842   */\n      tag_170\n      tag_59\n      jump\t// in\n    tag_170:\n        /* \"#utility.yul\":5725:5844   */\n    tag_169:\n        /* \"#utility.yul\":5883:5884   */\n      0x00\n        /* \"#utility.yul\":5908:5961   */\n      tag_171\n        /* \"#utility.yul\":5953:5960   */\n      dup5\n        /* \"#utility.yul\":5944:5950   */\n      dup3\n        /* \"#utility.yul\":5933:5942   */\n      dup6\n        /* \"#utility.yul\":5929:5951   */\n      add\n        /* \"#utility.yul\":5908:5961   */\n      tag_64\n      jump\t// in\n    tag_171:\n        /* \"#utility.yul\":5898:5961   */\n      swap2\n      pop\n        /* \"#utility.yul\":5854:5971   */\n      pop\n        /* \"#utility.yul\":5649:5978   */\n      swap3\n      swap2\n      pop\n      pop\n      jump\t// out\n        /* \"#utility.yul\":5984:6102   */\n    tag_82:\n        /* \"#utility.yul\":6071:6095   */\n      tag_173\n        /* \"#utility.yul\":6089:6094   */\n      dup2\n        /* \"#utility.yul\":6071:6095   */\n      tag_65\n      jump\t// in\n    tag_173:\n        /* \"#utility.yul\":6066:6069   */\n      dup3\n        /* \"#utility.yul\":6059:6096   */\n      mstore\n        /* \"#utility.yul\":5984:6102   */\n      pop\n      pop\n      jump\t// out\n        /* \"#utility.yul\":6108:6330   */\n    tag_33:\n        /* \"#utility.yul\":6201:6205   */\n      0x00\n        /* \"#utility.yul\":6239:6241   */\n      0x20\n        /* \"#utility.yul\":6228:6237   */\n      dup3\n        /* \"#utility.yul\":6224:6242   */\n      add\n        /* \"#utility.yul\":6216:6242   */\n      swap1\n      pop\n        /* \"#utility.yul\":6252:6323   */\n      tag_175\n        /* \"#utility.yul\":6320:6321   */\n      0x00\n        /* \"#utility.yul\":6309:6318   */\n      dup4\n        /* \"#utility.yul\":6305:6322   */\n      add\n        /* \"#utility.yul\":6296:6302   */\n      dup5\n        /* \"#utility.yul\":6252:6323   */\n      tag_82\n      jump\t// in\n    tag_175:\n        /* \"#utility.yul\":6108:6330   */\n      swap3\n      swap2\n      pop\n      pop\n      jump\t// out\n        /* \"#utility.yul\":6336:6454   */\n    tag_83:\n        /* \"#utility.yul\":6423:6447   */\n      tag_177\n        /* \"#utility.yul\":6441:6446   */\n      dup2\n        /* \"#utility.yul\":6423:6447   */\n      tag_62\n      jump\t// in\n    tag_177:\n        /* \"#utility.yul\":6418:6421   */\n      dup3\n        /* \"#utility.yul\":6411:6448   */\n      mstore\n        /* \"#utility.yul\":6336:6454   */\n      pop\n      pop\n      jump\t// out\n        /* \"#utility.yul\":6460:6682   */\n    tag_38:\n        /* \"#utility.yul\":6553:6557   */\n      0x00\n        /* \"#utility.yul\":6591:6593   */\n      0x20\n        /* \"#utility.yul\":6580:6589   */\n      dup3\n        /* \"#utility.yul\":6576:6594   */\n      add\n        /* \"#utility.yul\":6568:6594   */\n      swap1\n      pop\n        /* \"#utility.yul\":6604:6675   */\n      tag_179\n        /* \"#utility.yul\":6672:6673   */\n      0x00\n        /* \"#utility.yul\":6661:6670   */\n      dup4\n        /* \"#utility.yul\":6657:6674   */\n      add\n        /* \"#utility.yul\":6648:6654   */\n      dup5\n        /* \"#utility.yul\":6604:6675   */\n      tag_83\n      jump\t// in\n    tag_179:\n        /* \"#utility.yul\":6460:6682   */\n      swap3\n      swap2\n      pop\n      pop\n      jump\t// out\n        /* \"#utility.yul\":6688:6868   */\n    tag_84:\n        /* \"#utility.yul\":6736:6813   */\n      0x4e487b7100000000000000000000000000000000000000000000000000000000\n        /* \"#utility.yul\":6733:6734   */\n      0x00\n        /* \"#utility.yul\":6726:6814   */\n      mstore\n        /* \"#utility.yul\":6833:6837   */\n      0x22\n        /* \"#utility.yul\":6830:6831   */\n      0x04\n        /* \"#utility.yul\":6823:6838   */\n      mstore\n        /* \"#utility.yul\":6857:6861   */\n      0x24\n        /* \"#utility.yul\":6854:6855   */\n      0x00\n        /* \"#utility.yul\":6847:6862   */\n      revert\n        /* \"#utility.yul\":6874:7194   */\n    tag_49:\n        /* \"#utility.yul\":6918:6924   */\n      0x00\n        /* \"#utility.yul\":6955:6956   */\n      0x02\n        /* \"#utility.yul\":6949:6953   */\n      dup3\n        /* \"#utility.yul\":6945:6957   */\n      div\n        /* \"#utility.yul\":6935:6957   */\n      swap1\n      pop\n        /* \"#utility.yul\":7002:7003   */\n      0x01\n        /* \"#utility.yul\":6996:7000   */\n      dup3\n        /* \"#utility.yul\":6992:7004   */\n      and\n        /* \"#utility.yul\":7023:7041   */\n      dup1\n        /* \"#utility.yul\":7013:7094   */\n      tag_182\n      jumpi\n        /* \"#utility.yul\":7079:7083   */\n      0x7f\n        /* \"#utility.yul\":7071:7077   */\n      dup3\n        /* \"#utility.yul\":7067:7084   */\n      and\n        /* \"#utility.yul\":7057:7084   */\n      swap2\n      pop\n        /* \"#utility.yul\":7013:7094   */\n    tag_182:\n        /* \"#utility.yul\":7141:7143   */\n      0x20\n        /* \"#utility.yul\":7133:7139   */\n      dup3\n        /* \"#utility.yul\":7130:7144   */\n      lt\n        /* \"#utility.yul\":7110:7128   */\n      dup2\n        /* \"#utility.yul\":7107:7145   */\n      sub\n        /* \"#utility.yul\":7104:7188   */\n      tag_183\n      jumpi\n        /* \"#utility.yul\":7160:7178   */\n      tag_184\n      tag_84\n      jump\t// in\n    tag_184:\n        /* \"#utility.yul\":7104:7188   */\n    tag_183:\n        /* \"#utility.yul\":6925:7194   */\n      pop\n        /* \"#utility.yul\":6874:7194   */\n      swap2\n      swap1\n      pop\n      jump\t// out\n        /* \"#utility.yul\":7200:7341   */\n    tag_85:\n        /* \"#utility.yul\":7249:7253   */\n      0x00\n        /* \"#utility.yul\":7272:7275   */\n      dup2\n        /* \"#utility.yul\":7264:7275   */\n      swap1\n      pop\n        /* \"#utility.yul\":7295:7298   */\n      dup2\n        /* \"#utility.yul\":7292:7293   */\n      0x00\n        /* \"#utility.yul\":7285:7299   */\n      mstore\n        /* \"#utility.yul\":7329:7333   */\n      0x20\n        /* \"#utility.yul\":7326:7327   */\n      0x00\n        /* \"#utility.yul\":7316:7334   */\n      keccak256\n        /* \"#utility.yul\":7308:7334   */\n      swap1\n      pop\n        /* \"#utility.yul\":7200:7341   */\n      swap2\n      swap1\n      pop\n      jump\t// out\n        /* \"#utility.yul\":7347:7440   */\n    tag_86:\n        /* \"#utility.yul\":7384:7390   */\n      0x00\n        /* \"#utility.yul\":7431:7433   */\n      0x20\n        /* \"#utility.yul\":7426:7428   */\n      0x1f\n        /* \"#utility.yul\":7419:7424   */\n      dup4\n        /* \"#utility.yul\":7415:7429   */\n      add\n        /* \"#utility.yul\":7411:7434   */\n      div\n        /* \"#utility.yul\":7401:7434   */\n      swap1\n      pop\n        /* \"#utility.yul\":7347:7440   */\n      swap2\n      swap1\n      pop\n      jump\t// out\n        /* \"#utility.yul\":7446:7553   */\n    tag_87:\n        /* \"#utility.yul\":7490:7498   */\n      0x00\n        /* \"#utility.yul\":7540:7545   */\n      dup3\n        /* \"#utility.yul\":7534:7538   */\n      dup3\n        /* \"#utility.yul\":7530:7546   */\n      shl\n        /* \"#utility.yul\":7509:7546   */\n      swap1\n      pop\n        /* \"#utility.yul\":7446:7553   */\n      swap3\n      swap2\n      pop\n      pop\n      jump\t// out\n        /* \"#utility.yul\":7559:7952   */\n    tag_88:\n        /* \"#utility.yul\":7628:7634   */\n      0x00\n        /* \"#utility.yul\":7678:7679   */\n      0x08\n        /* \"#utility.yul\":7666:7676   */\n      dup4\n        /* \"#utility.yul\":7662:7680   */\n      mul\n        /* \"#utility.yul\":7701:7798   */\n      tag_189\n        /* \"#utility.yul\":7731:7797   */\n      0xffffffffffffffffffffffffffffffffffffffffffffffffffffffffffffffff\n        /* \"#utility.yul\":7720:7729   */\n      dup3\n        /* \"#utility.yul\":7701:7798   */\n      tag_87\n      jump\t// in\n    tag_189:\n        /* \"#utility.yul\":7819:7858   */\n      tag_190\n        /* \"#utility.yul\":7849:7857   */\n      dup7\n        /* \"#utility.yul\":7838:7847   */\n      dup4\n        /* \"#utility.yul\":7819:7858   */\n      tag_87\n      jump\t// in\n    tag_190:\n        /* \"#utility.yul\":7807:7858   */\n      swap6\n      pop\n        /* \"#utility.yul\":7891:7895   */\n      dup1\n        /* \"#utility.yul\":7887:7896   */\n      not\n        /* \"#utility.yul\":7880:7885   */\n      dup5\n        /* \"#utility.yul\":7876:7897   */\n      and\n        /* \"#utility.yul\":7867:7897   */\n      swap4\n      pop\n        /* \"#utility.yul\":7940:7944   */\n      dup1\n        /* \"#utility.yul\":7930:7938   */\n      dup7\n        /* \"#utility.yul\":7926:7945   */\n      and\n        /* \"#utility.yul\":7919:7924   */\n      dup5\n        /* \"#utility.yul\":7916:7946   */\n      or\n        /* \"#utility.yul\":7906:7946   */\n      swap3\n      pop\n        /* \"#utility.yul\":7635:7952   */\n      pop\n      pop\n        /* \"#utility.yul\":7559:7952   */\n      swap4\n      swap3\n      pop\n      pop\n      pop\n      jump\t// out\n        /* \"#utility.yul\":7958:8018   */\n    tag_89:\n        /* \"#utility.yul\":7986:7989   */\n      0x00\n        /* \"#utility.yul\":8007:8012   */\n      dup2\n        /* \"#utility.yul\":8000:8012   */\n      swap1\n      pop\n        /* \"#utility.yul\":7958:8018   */\n      swap2\n      swap1\n      pop\n      jump\t// out\n        /* \"#utility.yul\":8024:8166   */\n    tag_90:\n        /* \"#utility.yul\":8074:8083   */\n      0x00\n        /* \"#utility.yul\":8107:8160   */\n      tag_193\n        /* \"#utility.yul\":8125:8159   */\n      tag_194\n        /* \"#utility.yul\":8134:8158   */\n      tag_195\n        /* \"#utility.yul\":8152:8157   */\n      dup5\n        /* \"#utility.yul\":8134:8158   */\n      tag_65\n      jump\t// in\n    tag_195:\n        /* \"#utility.yul\":8125:8159   */\n      tag_89\n      jump\t// in\n    tag_194:\n        /* \"#utility.yul\":8107:8160   */\n      tag_65\n      jump\t// in\n    tag_193:\n        /* \"#utility.yul\":8094:8160   */\n      swap1\n      pop\n        /* \"#utility.yul\":8024:8166   */\n      swap2\n      swap1\n      pop\n      jump\t// out\n        /* \"#utility.yul\":8172:8247   */\n    tag_91:\n        /* \"#utility.yul\":8215:8218   */\n      0x00\n        /* \"#utility.yul\":8236:8241   */\n      dup2\n        /* \"#utility.yul\":8229:8241   */\n      swap1\n      pop\n        /* \"#utility.yul\":8172:8247   */\n      swap2\n      swap1\n      pop\n      jump\t// out\n        /* \"#utility.yul\":8253:8522   */\n    tag_92:\n        /* \"#utility.yul\":8363:8402   */\n      tag_198\n        /* \"#utility.yul\":8394:8401   */\n      dup4\n        /* \"#utility.yul\":8363:8402   */\n      tag_90\n      jump\t// in\n    tag_198:\n        /* \"#utility.yul\":8424:8515   */\n      tag_199\n        /* \"#utility.yul\":8473:8514   */\n      tag_200\n        /* \"#utility.yul\":8497:8513   */\n      dup3\n        /* \"#utility.yul\":8473:8514   */\n      tag_91\n      jump\t// in\n    tag_200:\n        /* \"#utility.yul\":8465:8471   */\n      dup5\n        /* \"#utility.yul\":8458:8462   */\n      dup5\n        /* \"#utility.yul\":8452:8463   */\n      sload\n        /* \"#utility.yul\":8424:8515   */\n      tag_88\n      jump\t// in\n    tag_199:\n        /* \"#utility.yul\":8418:8422   */\n      dup3\n        /* \"#utility.yul\":8411:8516   */\n      sstore\n        /* \"#utility.yul\":8329:8522   */\n      pop\n        /* \"#utility.yul\":8253:8522   */\n      pop\n      pop\n      pop\n      jump\t// out\n        /* \"#utility.yul\":8528:8601   */\n    tag_93:\n        /* \"#utility.yul\":8573:8576   */\n      0x00\n        /* \"#utility.yul\":8528:8601   */\n      swap1\n      jump\t// out\n        /* \"#utility.yul\":8607:8796   */\n    tag_94:\n        /* \"#utility.yul\":8684:8716   */\n      tag_203\n      tag_93\n      jump\t// in\n    tag_203:\n        /* \"#utility.yul\":8725:8790   */\n      tag_204\n        /* \"#utility.yul\":8783:8789   */\n      dup2\n        /* \"#utility.yul\":8775:8781   */\n      dup5\n        /* \"#utility.yul\":8769:8773   */\n      dup5\n        /* \"#utility.yul\":8725:8790   */\n      tag_92\n      jump\t// in\n    tag_204:\n        /* \"#utility.yul\":8660:8796   */\n      pop\n        /* \"#utility.yul\":8607:8796   */\n      pop\n      pop\n      jump\t// out\n        /* \"#utility.yul\":8802:8988   */\n    tag_95:\n        /* \"#utility.yul\":8862:8982   */\n    tag_206:\n        /* \"#utility.yul\":8879:8882   */\n      dup2\n        /* \"#utility.yul\":8872:8877   */\n      dup2\n        /* \"#utility.yul\":8869:8883   */\n      lt\n        /* \"#utility.yul\":8862:8982   */\n      iszero\n      tag_208\n      jumpi\n        /* \"#utility.yul\":8933:8972   */\n      tag_209\n        /* \"#utility.yul\":8970:8971   */\n      0x00\n        /* \"#utility.yul\":8963:8968   */\n      dup3\n        /* \"#utility.yul\":8933:8972   */\n      tag_94\n      jump\t// in\n    tag_209:\n        /* \"#utility.yul\":8906:8907   */\n      0x01\n        /* \"#utility.yul\":8899:8904   */\n      dup2\n        /* \"#utility.yul\":8895:8908   */\n      add\n        /* \"#utility.yul\":8886:8908   */\n      swap1\n      pop\n        /* \"#utility.yul\":8862:8982   */\n      jump(tag_206)\n    tag_208:\n        /* \"#utility.yul\":8802:8988   */\n      pop\n      pop\n      jump\t// out\n        /* \"#utility.yul\":8994:9537   */\n    tag_96:\n        /* \"#utility.yul\":9095:9097   */\n      0x1f\n        /* \"#utility.yul\":9090:9093   */\n      dup3\n        /* \"#utility.yul\":9087:9098   */\n      gt\n        /* \"#utility.yul\":9084:9530   */\n      iszero\n      tag_211\n      jumpi\n        /* \"#utility.yul\":9129:9167   */\n      tag_212\n        /* \"#utility.yul\":9161:9166   */\n      dup2\n        /* \"#utility.yul\":9129:9167   */\n      tag_85\n      jump\t// in\n    tag_212:\n        /* \"#utility.yul\":9213:9242   */\n      tag_213\n        /* \"#utility.yul\":9231:9241   */\n      dup5\n        /* \"#utility.yul\":9213:9242   */\n      tag_86\n      jump\t// in\n    tag_213:\n        /* \"#utility.yul\":9203:9211   */\n      dup2\n        /* \"#utility.yul\":9199:9243   */\n      add\n        /* \"#utility.yul\":9396:9398   */\n      0x20\n        /* \"#utility.yul\":9384:9394   */\n      dup6\n        /* \"#utility.yul\":9381:9399   */\n      lt\n        /* \"#utility.yul\":9378:9427   */\n      iszero\n      tag_214\n      jumpi\n        /* \"#utility.yul\":9417:9425   */\n      dup2\n        /* \"#utility.yul\":9402:9425   */\n      swap1\n      pop\n        /* \"#utility.yul\":9378:9427   */\n    tag_214:\n        /* \"#utility.yul\":9440:9520   */\n      tag_215\n        /* \"#utility.yul\":9496:9518   */\n      tag_216\n        /* \"#utility.yul\":9514:9517   */\n      dup6\n        /* \"#utility.yul\":9496:9518   */\n      tag_86\n      jump\t// in\n    tag_216:\n        /* \"#utility.yul\":9486:9494   */\n      dup4\n        /* \"#utility.yul\":9482:9519   */\n      add\n        /* \"#utility.yul\":9469:9480   */\n      dup3\n        /* \"#utility.yul\":9440:9520   */\n      tag_95\n      jump\t// in\n    tag_215:\n        /* \"#utility.yul\":9099:9530   */\n      pop\n      pop\n        /* \"#utility.yul\":9084:9530   */\n    tag_211:\n        /* \"#utility.yul\":8994:9537   */\n      pop\n      pop\n      pop\n      jump\t// out\n        /* \"#utility.yul\":9543:9660   */\n    tag_97:\n        /* \"#utility.yul\":9597:9605   */\n      0x00\n        /* \"#utility.yul\":9647:9652   */\n      dup3\n        /* \"#utility.yul\":9641:9645   */\n      dup3\n        /* \"#utility.yul\":9637:9653   */\n      shr\n        /* \"#utility.yul\":9616:9653   */\n      swap1\n      pop\n        /* \"#utility.yul\":9543:9660   */\n      swap3\n      swap2\n      pop\n      pop\n      jump\t// out\n        /* \"#utility.yul\":9666:9835   */\n    tag_98:\n        /* \"#utility.yul\":9710:9716   */\n      0x00\n        /* \"#utility.yul\":9743:9794   */\n      tag_219\n        /* \"#utility.yul\":9791:9792   */\n      0x00\n        /* \"#utility.yul\":9787:9793   */\n      not\n        /* \"#utility.yul\":9779:9784   */\n      dup5\n        /* \"#utility.yul\":9776:9777   */\n      0x08\n        /* \"#utility.yul\":9772:9785   */\n      mul\n        /* \"#utility.yul\":9743:9794   */\n      tag_97\n      jump\t// in\n    tag_219:\n        /* \"#utility.yul\":9739:9795   */\n      not\n        /* \"#utility.yul\":9824:9828   */\n      dup1\n        /* \"#utility.yul\":9818:9822   */\n      dup4\n        /* \"#utility.yul\":9814:9829   */\n      and\n        /* \"#utility.yul\":9804:9829   */\n      swap2\n      pop\n        /* \"#utility.yul\":9717:9835   */\n      pop\n        /* \"#utility.yul\":9666:9835   */\n      swap3\n      swap2\n      pop\n      pop\n      jump\t// out\n        /* \"#utility.yul\":9840:10135   */\n    tag_99:\n        /* \"#utility.yul\":9916:9920   */\n      0x00\n        /* \"#utility.yul\":10062:10091   */\n      tag_221\n        /* \"#utility.yul\":10087:10090   */\n      dup4\n        /* \"#utility.yul\":10081:10085   */\n      dup4\n        /* \"#utility.yul\":10062:10091   */\n      tag_98\n      jump\t// in\n    tag_221:\n        /* \"#utility.yul\":10054:10091   */\n      swap2\n      pop\n        /* \"#utility.yul\":10124:10127   */\n      dup3\n        /* \"#utility.yul\":10121:10122   */\n      0x02\n        /* \"#utility.yul\":10117:10128   */\n      mul\n        /* \"#utility.yul\":10111:10115   */\n      dup3\n        /* \"#utility.yul\":10108:10129   */\n      or\n        /* \"#utility.yul\":10100:10129   */\n      swap1\n      pop\n        /* \"#utility.yul\":9840:10135   */\n      swap3\n      swap2\n      pop\n      pop\n      jump\t// out\n        /* \"#utility.yul\":10140:11535   */\n    tag_56:\n        /* \"#utility.yul\":10257:10294   */\n      tag_223\n        /* \"#utility.yul\":10290:10293   */\n      dup3\n        /* \"#utility.yul\":10257:10294   */\n      tag_68\n      jump\t// in\n    tag_223:\n        /* \"#utility.yul\":10359:10377   */\n      0xffffffffffffffff\n        /* \"#utility.yul\":10351:10357   */\n      dup2\n        /* \"#utility.yul\":10348:10378   */\n      gt\n        /* \"#utility.yul\":10345:10401   */\n      iszero\n      tag_224\n      jumpi\n        /* \"#utility.yul\":10381:10399   */\n      tag_225\n      tag_75\n      jump\t// in\n    tag_225:\n        /* \"#utility.yul\":10345:10401   */\n    tag_224:\n        /* \"#utility.yul\":10425:10463   */\n      tag_226\n        /* \"#utility.yul\":10457:10461   */\n      dup3\n        /* \"#utility.yul\":10451:10462   */\n      sload\n        /* \"#utility.yul\":10425:10463   */\n      tag_49\n      jump\t// in\n    tag_226:\n        /* \"#utility.yul\":10510:10577   */\n      tag_227\n        /* \"#utility.yul\":10570:10576   */\n      dup3\n        /* \"#utility.yul\":10562:10568   */\n      dup3\n        /* \"#utility.yul\":10556:10560   */\n      dup6\n        /* \"#utility.yul\":10510:10577   */\n      tag_96\n      jump\t// in\n    tag_227:\n        /* \"#utility.yul\":10604:10605   */\n      0x00\n        /* \"#utility.yul\":10628:10632   */\n      0x20\n        /* \"#utility.yul\":10615:10632   */\n      swap1\n      pop\n        /* \"#utility.yul\":10660:10662   */\n      0x1f\n        /* \"#utility.yul\":10652:10658   */\n      dup4\n        /* \"#utility.yul\":10649:10663   */\n      gt\n        /* \"#utility.yul\":10677:10678   */\n      0x01\n        /* \"#utility.yul\":10672:11290   */\n      dup2\n      eq\n      tag_229\n      jumpi\n        /* \"#utility.yul\":11334:11335   */\n      0x00\n        /* \"#utility.yul\":11351:11357   */\n      dup5\n        /* \"#utility.yul\":11348:11425   */\n      iszero\n      tag_230\n      jumpi\n        /* \"#utility.yul\":11400:11409   */\n      dup3\n        /* \"#utility.yul\":11395:11398   */\n      dup8\n        /* \"#utility.yul\":11391:11410   */\n      add\n        /* \"#utility.yul\":11385:11411   */\n      mload\n        /* \"#utility.yul\":11376:11411   */\n      swap1\n      pop\n        /* \"#utility.yul\":11348:11425   */\n    tag_230:\n        /* \"#utility.yul\":11451:11518   */\n      tag_231\n        /* \"#utility.yul\":11511:11517   */\n      dup6\n        /* \"#utility.yul\":11504:11509   */\n      dup3\n        /* \"#utility.yul\":11451:11518   */\n      tag_99\n      jump\t// in\n    tag_231:\n        /* \"#utility.yul\":11445:11449   */\n      dup7\n        /* \"#utility.yul\":11438:11519   */\n      sstore\n        /* \"#utility.yul\":11307:11529   */\n      pop\n        /* \"#utility.yul\":10642:11529   */\n      jump(tag_228)\n        /* \"#utility.yul\":10672:11290   */\n    tag_229:\n        /* \"#utility.yul\":10724:10728   */\n      0x1f\n        /* \"#utility.yul\":10720:10729   */\n      not\n        /* \"#utility.yul\":10712:10718   */\n      dup5\n        /* \"#utility.yul\":10708:10730   */\n      and\n        /* \"#utility.yul\":10758:10795   */\n      tag_232\n        /* \"#utility.yul\":10790:10794   */\n      dup7\n        /* \"#utility.yul\":10758:10795   */\n      tag_85\n      jump\t// in\n    tag_232:\n        /* \"#utility.yul\":10817:10818   */\n      0x00\n        /* \"#utility.yul\":10831:11039   */\n    tag_233:\n        /* \"#utility.yul\":10845:10852   */\n      dup3\n        /* \"#utility.yul\":10842:10843   */\n      dup2\n        /* \"#utility.yul\":10839:10853   */\n      lt\n        /* \"#utility.yul\":10831:11039   */\n      iszero\n      tag_235\n      jumpi\n        /* \"#utility.yul\":10924:10933   */\n      dup5\n        /* \"#utility.yul\":10919:10922   */\n      dup10\n        /* \"#utility.yul\":10915:10934   */\n      add\n        /* \"#utility.yul\":10909:10935   */\n      mload\n        /* \"#utility.yul\":10901:10907   */\n      dup3\n        /* \"#utility.yul\":10894:10936   */\n      sstore\n        /* \"#utility.yul\":10975:10976   */\n      0x01\n        /* \"#utility.yul\":10967:10973   */\n      dup3\n        /* \"#utility.yul\":10963:10977   */\n      add\n        /* \"#utility.yul\":10953:10977   */\n      swap2\n      pop\n        /* \"#utility.yul\":11022:11024   */\n      0x20\n        /* \"#utility.yul\":11011:11020   */\n      dup6\n        /* \"#utility.yul\":11007:11025   */\n      add\n        /* \"#utility.yul\":10994:11025   */\n      swap5\n      pop\n        /* \"#utility.yul\":10868:10872   */\n      0x20\n        /* \"#utility.yul\":10865:10866   */\n      dup2\n        /* \"#utility.yul\":10861:10873   */\n      add\n        /* \"#utility.yul\":10856:10873   */\n      swap1\n      pop\n        /* \"#utility.yul\":10831:11039   */\n      jump(tag_233)\n    tag_235:\n        /* \"#utility.yul\":11067:11073   */\n      dup7\n        /* \"#utility.yul\":11058:11065   */\n      dup4\n        /* \"#utility.yul\":11055:11074   */\n      lt\n        /* \"#utility.yul\":11052:11231   */\n      iszero\n      tag_236\n      jumpi\n        /* \"#utility.yul\":11125:11134   */\n      dup5\n        /* \"#utility.yul\":11120:11123   */\n      dup10\n        /* \"#utility.yul\":11116:11135   */\n      add\n        /* \"#utility.yul\":11110:11136   */\n      mload\n        /* \"#utility.yul\":11168:11216   */\n      tag_237\n        /* \"#utility.yul\":11210:11214   */\n      0x1f\n        /* \"#utility.yul\":11202:11208   */\n      dup10\n        /* \"#utility.yul\":11198:11215   */\n      and\n        /* \"#utility.yul\":11187:11196   */\n      dup3\n        /* \"#utility.yul\":11168:11216   */\n      tag_98\n      jump\t// in\n    tag_237:\n        /* \"#utility.yul\":11160:11166   */\n      dup4\n        /* \"#utility.yul\":11153:11217   */\n      sstore\n        /* \"#utility.yul\":11075:11231   */\n      pop\n        /* \"#utility.yul\":11052:11231   */\n    tag_236:\n        /* \"#utility.yul\":11277:11278   */\n      0x01\n        /* \"#utility.yul\":11273:11274   */\n      0x02\n        /* \"#utility.yul\":11265:11271   */\n      dup9\n        /* \"#utility.yul\":11261:11275   */\n      mul\n        /* \"#utility.yul\":11257:11279   */\n      add\n        /* \"#utility.yul\":11251:11255   */\n      dup9\n        /* \"#utility.yul\":11244:11280   */\n      sstore\n        /* \"#utility.yul\":10679:11290   */\n      pop\n      pop\n      pop\n        /* \"#utility.yul\":10642:11529   */\n    tag_228:\n      pop\n        /* \"#utility.yul\":10232:11535   */\n      pop\n      pop\n      pop\n        /* \"#utility.yul\":10140:11535   */\n      pop\n      pop\n      jump\t// out\n\n    auxdata: 0xa26469706673582212209e970024667ce8efa00d5a8ed212ebdf6abc402450619fd298cb3d7ddc4f6af664736f6c634300081a0033\n}\n",
				"bytecode": {
					"linkReferences": {},
					"object": "60806040526040518060400160405280600481526020017f74657374000000000000000000000000000000000000000000000000000000008152506001908161004891906102e8565b507378731d3ca6b7e34ac0f824c42a7cc18a495cabab60025f6101000a81548173ffffffffffffffffffffffffffffffffffffffff021916908373ffffffffffffffffffffffffffffffffffffffff1602179055503480156100a8575f80fd5b506103b7565b5f81519050919050565b7f4e487b71000000000000000000000000000000000000000000000000000000005f52604160045260245ffd5b7f4e487b71000000000000000000000000000000000000000000000000000000005f52602260045260245ffd5b5f600282049050600182168061012957607f821691505b60208210810361013c5761013b6100e5565b5b50919050565b5f819050815f5260205f209050919050565b5f6020601f8301049050919050565b5f82821b905092915050565b5f6008830261019e7fffffffffffffffffffffffffffffffffffffffffffffffffffffffffffffffff82610163565b6101a88683610163565b95508019841693508086168417925050509392505050565b5f819050919050565b5f819050919050565b5f6101ec6101e76101e2846101c0565b6101c9565b6101c0565b9050919050565b5f819050919050565b610205836101d2565b610219610211826101f3565b84845461016f565b825550505050565b5f90565b61022d610221565b6102388184846101fc565b505050565b5b8181101561025b576102505f82610225565b60018101905061023e565b5050565b601f8211156102a05761027181610142565b61027a84610154565b81016020851015610289578190505b61029d61029585610154565b83018261023d565b50505b505050565b5f82821c905092915050565b5f6102c05f19846008026102a5565b1980831691505092915050565b5f6102d883836102b1565b9150826002028217905092915050565b6102f1826100ae565b67ffffffffffffffff81111561030a576103096100b8565b5b6103148254610112565b61031f82828561025f565b5f60209050601f831160018114610350575f841561033e578287015190505b61034885826102cd565b8655506103af565b601f19841661035e86610142565b5f5b8281101561038557848901518255600182019150602085019450602081019050610360565b868310156103a2578489015161039e601f8916826102b1565b8355505b6001600288020188555050505b505050505050565b610a02806103c45f395ff3fe60806040526004361061006e575f3560e01c8063939a79ac1161004d578063939a79ac146100ce578063e2982c21146100f6578063e665b26614610132578063f8b2cb4f1461015c5761006e565b80625c33e1146100725780632ccb1b301461007c5780635a455c1c146100a4575b5f80fd5b61007a610198565b005b348015610087575f80fd5b506100a2600480360381019061009d919061042d565b6101db565b005b3480156100af575f80fd5b506100b8610228565b6040516100c591906104f5565b60405180910390f35b3480156100d9575f80fd5b506100f460048036038101906100ef9190610641565b6102b4565b005b348015610101575f80fd5b5061011c60048036038101906101179190610688565b610336565b60405161012991906106c2565b60405180910390f35b34801561013d575f80fd5b5061014661034a565b60405161015391906106ea565b60405180910390f35b348015610167575f80fd5b50610182600480360381019061017d9190610688565b61036f565b60405161018f91906106c2565b60405180910390f35b345f803373ffffffffffffffffffffffffffffffffffffffff1673ffffffffffffffffffffffffffffffffffffffff1681526020019081526020015f2081905550565b5f8290508073ffffffffffffffffffffffffffffffffffffffff166108fc8390811502906040515f60405180830381858888f19350505050158015610222573d5f803e3d5ffd5b50505050565b6001805461023590610730565b80601f016020809104026020016040519081016040528092919081815260200182805461026190610730565b80156102ac5780601f10610283576101008083540402835291602001916102ac565b820191905f5260205f20905b81548152906001019060200180831161028f57829003601f168201915b505050505081565b5f6040518060400160405280600481526020017f74656d700000000000000000000000000000000000000000000000000000000081525090506040518060400160405280600981526020017f6e65772076616c756500000000000000000000000000000000000000000000008152506001908161033191906108fd565b505050565b5f602052805f5260405f205f915090505481565b60025f9054906101000a900473ffffffffffffffffffffffffffffffffffffffff1681565b5f8173ffffffffffffffffffffffffffffffffffffffff16319050919050565b5f604051905090565b5f80fd5b5f80fd5b5f73ffffffffffffffffffffffffffffffffffffffff82169050919050565b5f6103c9826103a0565b9050919050565b6103d9816103bf565b81146103e3575f80fd5b50565b5f813590506103f4816103d0565b92915050565b5f819050919050565b61040c816103fa565b8114610416575f80fd5b50565b5f8135905061042781610403565b92915050565b5f806040838503121561044357610442610398565b5b5f610450858286016103e6565b925050602061046185828601610419565b9150509250929050565b5f81519050919050565b5f82825260208201905092915050565b5f5b838110156104a2578082015181840152602081019050610487565b5f8484015250505050565b5f601f19601f8301169050919050565b5f6104c78261046b565b6104d18185610475565b93506104e1818560208601610485565b6104ea816104ad565b840191505092915050565b5f6020820190508181035f83015261050d81846104bd565b905092915050565b5f80fd5b5f80fd5b7f4e487b71000000000000000000000000000000000000000000000000000000005f52604160045260245ffd5b610553826104ad565b810181811067ffffffffffffffff821117156105725761057161051d565b5b80604052505050565b5f61058461038f565b9050610590828261054a565b919050565b5f67ffffffffffffffff8211156105af576105ae61051d565b5b6105b8826104ad565b9050602081019050919050565b828183375f83830152505050565b5f6105e56105e084610595565b61057b565b90508281526020810184848401111561060157610600610519565b5b61060c8482856105c5565b509392505050565b5f82601f83011261062857610627610515565b5b81356106388482602086016105d3565b91505092915050565b5f6020828403121561065657610655610398565b5b5f82013567ffffffffffffffff8111156106735761067261039c565b5b61067f84828501610614565b91505092915050565b5f6020828403121561069d5761069c610398565b5b5f6106aa848285016103e6565b91505092915050565b6106bc816103fa565b82525050565b5f6020820190506106d55f8301846106b3565b92915050565b6106e4816103bf565b82525050565b5f6020820190506106fd5f8301846106db565b92915050565b7f4e487b71000000000000000000000000000000000000000000000000000000005f52602260045260245ffd5b5f600282049050600182168061074757607f821691505b60208210810361075a57610759610703565b5b50919050565b5f819050815f5260205f209050919050565b5f6020601f8301049050919050565b5f82821b905092915050565b5f600883026107bc7fffffffffffffffffffffffffffffffffffffffffffffffffffffffffffffffff82610781565b6107c68683610781565b95508019841693508086168417925050509392505050565b5f819050919050565b5f6108016107fc6107f7846103fa565b6107de565b6103fa565b9050919050565b5f819050919050565b61081a836107e7565b61082e61082682610808565b84845461078d565b825550505050565b5f90565b610842610836565b61084d818484610811565b505050565b5b81811015610870576108655f8261083a565b600181019050610853565b5050565b601f8211156108b55761088681610760565b61088f84610772565b8101602085101561089e578190505b6108b26108aa85610772565b830182610852565b50505b505050565b5f82821c905092915050565b5f6108d55f19846008026108ba565b1980831691505092915050565b5f6108ed83836108c6565b9150826002028217905092915050565b6109068261046b565b67ffffffffffffffff81111561091f5761091e61051d565b5b6109298254610730565b610934828285610874565b5f60209050601f831160018114610965575f8415610953578287015190505b61095d85826108e2565b8655506109c4565b601f19841661097386610760565b5f5b8281101561099a57848901518255600182019150602085019450602081019050610975565b868310156109b757848901516109b3601f8916826108c6565b8355505b6001600288020188555050505b50505050505056fea26469706673582212209e970024667ce8efa00d5a8ed212ebdf6abc402450619fd298cb3d7ddc4f6af664736f6c634300081a0033",
					"opcodes": "PUSH1 0x80 PUSH1 0x40 MSTORE PUSH1 0x40 MLOAD DUP1 PUSH1 0x40 ADD PUSH1 0x40 MSTORE DUP1 PUSH1 0x4 DUP2 MSTORE PUSH1 0x20 ADD PUSH32 0x7465737400000000000000000000000000000000000000000000000000000000 DUP2 MSTORE POP PUSH1 0x1 SWAP1 DUP2 PUSH2 0x48 SWAP2 SWAP1 PUSH2 0x2E8 JUMP JUMPDEST POP PUSH20 0x78731D3CA6B7E34AC0F824C42A7CC18A495CABAB PUSH1 0x2 PUSH0 PUSH2 0x100 EXP DUP2 SLOAD DUP2 PUSH20 0xFFFFFFFFFFFFFFFFFFFFFFFFFFFFFFFFFFFFFFFF MUL NOT AND SWAP1 DUP4 PUSH20 0xFFFFFFFFFFFFFFFFFFFFFFFFFFFFFFFFFFFFFFFF AND MUL OR SWAP1 SSTORE POP CALLVALUE DUP1 ISZERO PUSH2 0xA8 JUMPI PUSH0 DUP1 REVERT JUMPDEST POP PUSH2 0x3B7 JUMP JUMPDEST PUSH0 DUP2 MLOAD SWAP1 POP SWAP2 SWAP1 POP JUMP JUMPDEST PUSH32 0x4E487B7100000000000000000000000000000000000000000000000000000000 PUSH0 MSTORE PUSH1 0x41 PUSH1 0x4 MSTORE PUSH1 0x24 PUSH0 REVERT JUMPDEST PUSH32 0x4E487B7100000000000000000000000000000000000000000000000000000000 PUSH0 MSTORE PUSH1 0x22 PUSH1 0x4 MSTORE PUSH1 0x24 PUSH0 REVERT JUMPDEST PUSH0 PUSH1 0x2 DUP3 DIV SWAP1 POP PUSH1 0x1 DUP3 AND DUP1 PUSH2 0x129 JUMPI PUSH1 0x7F DUP3 AND SWAP2 POP JUMPDEST PUSH1 0x20 DUP3 LT DUP2 SUB PUSH2 0x13C JUMPI PUSH2 0x13B PUSH2 0xE5 JUMP JUMPDEST JUMPDEST POP SWAP2 SWAP1 POP JUMP JUMPDEST PUSH0 DUP2 SWAP1 POP DUP2 PUSH0 MSTORE PUSH1 0x20 PUSH0 KECCAK256 SWAP1 POP SWAP2 SWAP1 POP JUMP JUMPDEST PUSH0 PUSH1 0x20 PUSH1 0x1F DUP4 ADD DIV SWAP1 POP SWAP2 SWAP1 POP JUMP JUMPDEST PUSH0 DUP3 DUP3 SHL SWAP1 POP SWAP3 SWAP2 POP POP JUMP JUMPDEST PUSH0 PUSH1 0x8 DUP4 MUL PUSH2 0x19E PUSH32 0xFFFFFFFFFFFFFFFFFFFFFFFFFFFFFFFFFFFFFFFFFFFFFFFFFFFFFFFFFFFFFFFF DUP3 PUSH2 0x163 JUMP JUMPDEST PUSH2 0x1A8 DUP7 DUP4 PUSH2 0x163 JUMP JUMPDEST SWAP6 POP DUP1 NOT DUP5 AND SWAP4 POP DUP1 DUP7 AND DUP5 OR SWAP3 POP POP POP SWAP4 SWAP3 POP POP POP JUMP JUMPDEST PUSH0 DUP2 SWAP1 POP SWAP2 SWAP1 POP JUMP JUMPDEST PUSH0 DUP2 SWAP1 POP SWAP2 SWAP1 POP JUMP JUMPDEST PUSH0 PUSH2 0x1EC PUSH2 0x1E7 PUSH2 0x1E2 DUP5 PUSH2 0x1C0 JUMP JUMPDEST PUSH2 0x1C9 JUMP JUMPDEST PUSH2 0x1C0 JUMP JUMPDEST SWAP1 POP SWAP2 SWAP1 POP JUMP JUMPDEST PUSH0 DUP2 SWAP1 POP SWAP2 SWAP1 POP JUMP JUMPDEST PUSH2 0x205 DUP4 PUSH2 0x1D2 JUMP JUMPDEST PUSH2 0x219 PUSH2 0x211 DUP3 PUSH2 0x1F3 JUMP JUMPDEST DUP5 DUP5 SLOAD PUSH2 0x16F JUMP JUMPDEST DUP3 SSTORE POP POP POP POP JUMP JUMPDEST PUSH0 SWAP1 JUMP JUMPDEST PUSH2 0x22D PUSH2 0x221 JUMP JUMPDEST PUSH2 0x238 DUP2 DUP5 DUP5 PUSH2 0x1FC JUMP JUMPDEST POP POP POP JUMP JUMPDEST JUMPDEST DUP2 DUP2 LT ISZERO PUSH2 0x25B JUMPI PUSH2 0x250 PUSH0 DUP3 PUSH2 0x225 JUMP JUMPDEST PUSH1 0x1 DUP2 ADD SWAP1 POP PUSH2 0x23E JUMP JUMPDEST POP POP JUMP JUMPDEST PUSH1 0x1F DUP3 GT ISZERO PUSH2 0x2A0 JUMPI PUSH2 0x271 DUP2 PUSH2 0x142 JUMP JUMPDEST PUSH2 0x27A DUP5 PUSH2 0x154 JUMP JUMPDEST DUP2 ADD PUSH1 0x20 DUP6 LT ISZERO PUSH2 0x289 JUMPI DUP2 SWAP1 POP JUMPDEST PUSH2 0x29D PUSH2 0x295 DUP6 PUSH2 0x154 JUMP JUMPDEST DUP4 ADD DUP3 PUSH2 0x23D JUMP JUMPDEST POP POP JUMPDEST POP POP POP JUMP JUMPDEST PUSH0 DUP3 DUP3 SHR SWAP1 POP SWAP3 SWAP2 POP POP JUMP JUMPDEST PUSH0 PUSH2 0x2C0 PUSH0 NOT DUP5 PUSH1 0x8 MUL PUSH2 0x2A5 JUMP JUMPDEST NOT DUP1 DUP4 AND SWAP2 POP POP SWAP3 SWAP2 POP POP JUMP JUMPDEST PUSH0 PUSH2 0x2D8 DUP4 DUP4 PUSH2 0x2B1 JUMP JUMPDEST SWAP2 POP DUP3 PUSH1 0x2 MUL DUP3 OR SWAP1 POP SWAP3 SWAP2 POP POP JUMP JUMPDEST PUSH2 0x2F1 DUP3 PUSH2 0xAE JUMP JUMPDEST PUSH8 0xFFFFFFFFFFFFFFFF DUP2 GT ISZERO PUSH2 0x30A JUMPI PUSH2 0x309 PUSH2 0xB8 JUMP JUMPDEST JUMPDEST PUSH2 0x314 DUP3 SLOAD PUSH2 0x112 JUMP JUMPDEST PUSH2 0x31F DUP3 DUP3 DUP6 PUSH2 0x25F JUMP JUMPDEST PUSH0 PUSH1 0x20 SWAP1 POP PUSH1 0x1F DUP4 GT PUSH1 0x1 DUP2 EQ PUSH2 0x350 JUMPI PUSH0 DUP5 ISZERO PUSH2 0x33E JUMPI DUP3 DUP8 ADD MLOAD SWAP1 POP JUMPDEST PUSH2 0x348 DUP6 DUP3 PUSH2 0x2CD JUMP JUMPDEST DUP7 SSTORE POP PUSH2 0x3AF JUMP JUMPDEST PUSH1 0x1F NOT DUP5 AND PUSH2 0x35E DUP7 PUSH2 0x142 JUMP JUMPDEST PUSH0 JUMPDEST DUP3 DUP2 LT ISZERO PUSH2 0x385 JUMPI DUP5 DUP10 ADD MLOAD DUP3 SSTORE PUSH1 0x1 DUP3 ADD SWAP2 POP PUSH1 0x20 DUP6 ADD SWAP5 POP PUSH1 0x20 DUP2 ADD SWAP1 POP PUSH2 0x360 JUMP JUMPDEST DUP7 DUP4 LT ISZERO PUSH2 0x3A2 JUMPI DUP5 DUP10 ADD MLOAD PUSH2 0x39E PUSH1 0x1F DUP10 AND DUP3 PUSH2 0x2B1 JUMP JUMPDEST DUP4 SSTORE POP JUMPDEST PUSH1 0x1 PUSH1 0x2 DUP9 MUL ADD DUP9 SSTORE POP POP POP JUMPDEST POP POP POP POP POP POP JUMP JUMPDEST PUSH2 0xA02 DUP1 PUSH2 0x3C4 PUSH0 CODECOPY PUSH0 RETURN INVALID PUSH1 0x80 PUSH1 0x40 MSTORE PUSH1 0x4 CALLDATASIZE LT PUSH2 0x6E JUMPI PUSH0 CALLDATALOAD PUSH1 0xE0 SHR DUP1 PUSH4 0x939A79AC GT PUSH2 0x4D JUMPI DUP1 PUSH4 0x939A79AC EQ PUSH2 0xCE JUMPI DUP1 PUSH4 0xE2982C21 EQ PUSH2 0xF6 JUMPI DUP1 PUSH4 0xE665B266 EQ PUSH2 0x132 JUMPI DUP1 PUSH4 0xF8B2CB4F EQ PUSH2 0x15C JUMPI PUSH2 0x6E JUMP JUMPDEST DUP1 PUSH3 0x5C33E1 EQ PUSH2 0x72 JUMPI DUP1 PUSH4 0x2CCB1B30 EQ PUSH2 0x7C JUMPI DUP1 PUSH4 0x5A455C1C EQ PUSH2 0xA4 JUMPI JUMPDEST PUSH0 DUP1 REVERT JUMPDEST PUSH2 0x7A PUSH2 0x198 JUMP JUMPDEST STOP JUMPDEST CALLVALUE DUP1 ISZERO PUSH2 0x87 JUMPI PUSH0 DUP1 REVERT JUMPDEST POP PUSH2 0xA2 PUSH1 0x4 DUP1 CALLDATASIZE SUB DUP2 ADD SWAP1 PUSH2 0x9D SWAP2 SWAP1 PUSH2 0x42D JUMP JUMPDEST PUSH2 0x1DB JUMP JUMPDEST STOP JUMPDEST CALLVALUE DUP1 ISZERO PUSH2 0xAF JUMPI PUSH0 DUP1 REVERT JUMPDEST POP PUSH2 0xB8 PUSH2 0x228 JUMP JUMPDEST PUSH1 0x40 MLOAD PUSH2 0xC5 SWAP2 SWAP1 PUSH2 0x4F5 JUMP JUMPDEST PUSH1 0x40 MLOAD DUP1 SWAP2 SUB SWAP1 RETURN JUMPDEST CALLVALUE DUP1 ISZERO PUSH2 0xD9 JUMPI PUSH0 DUP1 REVERT JUMPDEST POP PUSH2 0xF4 PUSH1 0x4 DUP1 CALLDATASIZE SUB DUP2 ADD SWAP1 PUSH2 0xEF SWAP2 SWAP1 PUSH2 0x641 JUMP JUMPDEST PUSH2 0x2B4 JUMP JUMPDEST STOP JUMPDEST CALLVALUE DUP1 ISZERO PUSH2 0x101 JUMPI PUSH0 DUP1 REVERT JUMPDEST POP PUSH2 0x11C PUSH1 0x4 DUP1 CALLDATASIZE SUB DUP2 ADD SWAP1 PUSH2 0x117 SWAP2 SWAP1 PUSH2 0x688 JUMP JUMPDEST PUSH2 0x336 JUMP JUMPDEST PUSH1 0x40 MLOAD PUSH2 0x129 SWAP2 SWAP1 PUSH2 0x6C2 JUMP JUMPDEST PUSH1 0x40 MLOAD DUP1 SWAP2 SUB SWAP1 RETURN JUMPDEST CALLVALUE DUP1 ISZERO PUSH2 0x13D JUMPI PUSH0 DUP1 REVERT JUMPDEST POP PUSH2 0x146 PUSH2 0x34A JUMP JUMPDEST PUSH1 0x40 MLOAD PUSH2 0x153 SWAP2 SWAP1 PUSH2 0x6EA JUMP JUMPDEST PUSH1 0x40 MLOAD DUP1 SWAP2 SUB SWAP1 RETURN JUMPDEST CALLVALUE DUP1 ISZERO PUSH2 0x167 JUMPI PUSH0 DUP1 REVERT JUMPDEST POP PUSH2 0x182 PUSH1 0x4 DUP1 CALLDATASIZE SUB DUP2 ADD SWAP1 PUSH2 0x17D SWAP2 SWAP1 PUSH2 0x688 JUMP JUMPDEST PUSH2 0x36F JUMP JUMPDEST PUSH1 0x40 MLOAD PUSH2 0x18F SWAP2 SWAP1 PUSH2 0x6C2 JUMP JUMPDEST PUSH1 0x40 MLOAD DUP1 SWAP2 SUB SWAP1 RETURN JUMPDEST CALLVALUE PUSH0 DUP1 CALLER PUSH20 0xFFFFFFFFFFFFFFFFFFFFFFFFFFFFFFFFFFFFFFFF AND PUSH20 0xFFFFFFFFFFFFFFFFFFFFFFFFFFFFFFFFFFFFFFFF AND DUP2 MSTORE PUSH1 0x20 ADD SWAP1 DUP2 MSTORE PUSH1 0x20 ADD PUSH0 KECCAK256 DUP2 SWAP1 SSTORE POP JUMP JUMPDEST PUSH0 DUP3 SWAP1 POP DUP1 PUSH20 0xFFFFFFFFFFFFFFFFFFFFFFFFFFFFFFFFFFFFFFFF AND PUSH2 0x8FC DUP4 SWAP1 DUP2 ISZERO MUL SWAP1 PUSH1 0x40 MLOAD PUSH0 PUSH1 0x40 MLOAD DUP1 DUP4 SUB DUP2 DUP6 DUP9 DUP9 CALL SWAP4 POP POP POP POP ISZERO DUP1 ISZERO PUSH2 0x222 JUMPI RETURNDATASIZE PUSH0 DUP1 RETURNDATACOPY RETURNDATASIZE PUSH0 REVERT JUMPDEST POP POP POP POP JUMP JUMPDEST PUSH1 0x1 DUP1 SLOAD PUSH2 0x235 SWAP1 PUSH2 0x730 JUMP JUMPDEST DUP1 PUSH1 0x1F ADD PUSH1 0x20 DUP1 SWAP2 DIV MUL PUSH1 0x20 ADD PUSH1 0x40 MLOAD SWAP1 DUP2 ADD PUSH1 0x40 MSTORE DUP1 SWAP3 SWAP2 SWAP1 DUP2 DUP2 MSTORE PUSH1 0x20 ADD DUP3 DUP1 SLOAD PUSH2 0x261 SWAP1 PUSH2 0x730 JUMP JUMPDEST DUP1 ISZERO PUSH2 0x2AC JUMPI DUP1 PUSH1 0x1F LT PUSH2 0x283 JUMPI PUSH2 0x100 DUP1 DUP4 SLOAD DIV MUL DUP4 MSTORE SWAP2 PUSH1 0x20 ADD SWAP2 PUSH2 0x2AC JUMP JUMPDEST DUP3 ADD SWAP2 SWAP1 PUSH0 MSTORE PUSH1 0x20 PUSH0 KECCAK256 SWAP1 JUMPDEST DUP2 SLOAD DUP2 MSTORE SWAP1 PUSH1 0x1 ADD SWAP1 PUSH1 0x20 ADD DUP1 DUP4 GT PUSH2 0x28F JUMPI DUP3 SWAP1 SUB PUSH1 0x1F AND DUP3 ADD SWAP2 JUMPDEST POP POP POP POP POP DUP2 JUMP JUMPDEST PUSH0 PUSH1 0x40 MLOAD DUP1 PUSH1 0x40 ADD PUSH1 0x40 MSTORE DUP1 PUSH1 0x4 DUP2 MSTORE PUSH1 0x20 ADD PUSH32 0x74656D7000000000000000000000000000000000000000000000000000000000 DUP2 MSTORE POP SWAP1 POP PUSH1 0x40 MLOAD DUP1 PUSH1 0x40 ADD PUSH1 0x40 MSTORE DUP1 PUSH1 0x9 DUP2 MSTORE PUSH1 0x20 ADD PUSH32 0x6E65772076616C75650000000000000000000000000000000000000000000000 DUP2 MSTORE POP PUSH1 0x1 SWAP1 DUP2 PUSH2 0x331 SWAP2 SWAP1 PUSH2 0x8FD JUMP JUMPDEST POP POP POP JUMP JUMPDEST PUSH0 PUSH1 0x20 MSTORE DUP1 PUSH0 MSTORE PUSH1 0x40 PUSH0 KECCAK256 PUSH0 SWAP2 POP SWAP1 POP SLOAD DUP2 JUMP JUMPDEST PUSH1 0x2 PUSH0 SWAP1 SLOAD SWAP1 PUSH2 0x100 EXP SWAP1 DIV PUSH20 0xFFFFFFFFFFFFFFFFFFFFFFFFFFFFFFFFFFFFFFFF AND DUP2 JUMP JUMPDEST PUSH0 DUP2 PUSH20 0xFFFFFFFFFFFFFFFFFFFFFFFFFFFFFFFFFFFFFFFF AND BALANCE SWAP1 POP SWAP2 SWAP1 POP JUMP JUMPDEST PUSH0 PUSH1 0x40 MLOAD SWAP1 POP SWAP1 JUMP JUMPDEST PUSH0 DUP1 REVERT JUMPDEST PUSH0 DUP1 REVERT JUMPDEST PUSH0 PUSH20 0xFFFFFFFFFFFFFFFFFFFFFFFFFFFFFFFFFFFFFFFF DUP3 AND SWAP1 POP SWAP2 SWAP1 POP JUMP JUMPDEST PUSH0 PUSH2 0x3C9 DUP3 PUSH2 0x3A0 JUMP JUMPDEST SWAP1 POP SWAP2 SWAP1 POP JUMP JUMPDEST PUSH2 0x3D9 DUP2 PUSH2 0x3BF JUMP JUMPDEST DUP2 EQ PUSH2 0x3E3 JUMPI PUSH0 DUP1 REVERT JUMPDEST POP JUMP JUMPDEST PUSH0 DUP2 CALLDATALOAD SWAP1 POP PUSH2 0x3F4 DUP2 PUSH2 0x3D0 JUMP JUMPDEST SWAP3 SWAP2 POP POP JUMP JUMPDEST PUSH0 DUP2 SWAP1 POP SWAP2 SWAP1 POP JUMP JUMPDEST PUSH2 0x40C DUP2 PUSH2 0x3FA JUMP JUMPDEST DUP2 EQ PUSH2 0x416 JUMPI PUSH0 DUP1 REVERT JUMPDEST POP JUMP JUMPDEST PUSH0 DUP2 CALLDATALOAD SWAP1 POP PUSH2 0x427 DUP2 PUSH2 0x403 JUMP JUMPDEST SWAP3 SWAP2 POP POP JUMP JUMPDEST PUSH0 DUP1 PUSH1 0x40 DUP4 DUP6 SUB SLT ISZERO PUSH2 0x443 JUMPI PUSH2 0x442 PUSH2 0x398 JUMP JUMPDEST JUMPDEST PUSH0 PUSH2 0x450 DUP6 DUP3 DUP7 ADD PUSH2 0x3E6 JUMP JUMPDEST SWAP3 POP POP PUSH1 0x20 PUSH2 0x461 DUP6 DUP3 DUP7 ADD PUSH2 0x419 JUMP JUMPDEST SWAP2 POP POP SWAP3 POP SWAP3 SWAP1 POP JUMP JUMPDEST PUSH0 DUP2 MLOAD SWAP1 POP SWAP2 SWAP1 POP JUMP JUMPDEST PUSH0 DUP3 DUP3 MSTORE PUSH1 0x20 DUP3 ADD SWAP1 POP SWAP3 SWAP2 POP POP JUMP JUMPDEST PUSH0 JUMPDEST DUP4 DUP2 LT ISZERO PUSH2 0x4A2 JUMPI DUP1 DUP3 ADD MLOAD DUP2 DUP5 ADD MSTORE PUSH1 0x20 DUP2 ADD SWAP1 POP PUSH2 0x487 JUMP JUMPDEST PUSH0 DUP5 DUP5 ADD MSTORE POP POP POP POP JUMP JUMPDEST PUSH0 PUSH1 0x1F NOT PUSH1 0x1F DUP4 ADD AND SWAP1 POP SWAP2 SWAP1 POP JUMP JUMPDEST PUSH0 PUSH2 0x4C7 DUP3 PUSH2 0x46B JUMP JUMPDEST PUSH2 0x4D1 DUP2 DUP6 PUSH2 0x475 JUMP JUMPDEST SWAP4 POP PUSH2 0x4E1 DUP2 DUP6 PUSH1 0x20 DUP7 ADD PUSH2 0x485 JUMP JUMPDEST PUSH2 0x4EA DUP2 PUSH2 0x4AD JUMP JUMPDEST DUP5 ADD SWAP2 POP POP SWAP3 SWAP2 POP POP JUMP JUMPDEST PUSH0 PUSH1 0x20 DUP3 ADD SWAP1 POP DUP2 DUP2 SUB PUSH0 DUP4 ADD MSTORE PUSH2 0x50D DUP2 DUP5 PUSH2 0x4BD JUMP JUMPDEST SWAP1 POP SWAP3 SWAP2 POP POP JUMP JUMPDEST PUSH0 DUP1 REVERT JUMPDEST PUSH0 DUP1 REVERT JUMPDEST PUSH32 0x4E487B7100000000000000000000000000000000000000000000000000000000 PUSH0 MSTORE PUSH1 0x41 PUSH1 0x4 MSTORE PUSH1 0x24 PUSH0 REVERT JUMPDEST PUSH2 0x553 DUP3 PUSH2 0x4AD JUMP JUMPDEST DUP2 ADD DUP2 DUP2 LT PUSH8 0xFFFFFFFFFFFFFFFF DUP3 GT OR ISZERO PUSH2 0x572 JUMPI PUSH2 0x571 PUSH2 0x51D JUMP JUMPDEST JUMPDEST DUP1 PUSH1 0x40 MSTORE POP POP POP JUMP JUMPDEST PUSH0 PUSH2 0x584 PUSH2 0x38F JUMP JUMPDEST SWAP1 POP PUSH2 0x590 DUP3 DUP3 PUSH2 0x54A JUMP JUMPDEST SWAP2 SWAP1 POP JUMP JUMPDEST PUSH0 PUSH8 0xFFFFFFFFFFFFFFFF DUP3 GT ISZERO PUSH2 0x5AF JUMPI PUSH2 0x5AE PUSH2 0x51D JUMP JUMPDEST JUMPDEST PUSH2 0x5B8 DUP3 PUSH2 0x4AD JUMP JUMPDEST SWAP1 POP PUSH1 0x20 DUP2 ADD SWAP1 POP SWAP2 SWAP1 POP JUMP JUMPDEST DUP3 DUP2 DUP4 CALLDATACOPY PUSH0 DUP4 DUP4 ADD MSTORE POP POP POP JUMP JUMPDEST PUSH0 PUSH2 0x5E5 PUSH2 0x5E0 DUP5 PUSH2 0x595 JUMP JUMPDEST PUSH2 0x57B JUMP JUMPDEST SWAP1 POP DUP3 DUP2 MSTORE PUSH1 0x20 DUP2 ADD DUP5 DUP5 DUP5 ADD GT ISZERO PUSH2 0x601 JUMPI PUSH2 0x600 PUSH2 0x519 JUMP JUMPDEST JUMPDEST PUSH2 0x60C DUP5 DUP3 DUP6 PUSH2 0x5C5 JUMP JUMPDEST POP SWAP4 SWAP3 POP POP POP JUMP JUMPDEST PUSH0 DUP3 PUSH1 0x1F DUP4 ADD SLT PUSH2 0x628 JUMPI PUSH2 0x627 PUSH2 0x515 JUMP JUMPDEST JUMPDEST DUP2 CALLDATALOAD PUSH2 0x638 DUP5 DUP3 PUSH1 0x20 DUP7 ADD PUSH2 0x5D3 JUMP JUMPDEST SWAP2 POP POP SWAP3 SWAP2 POP POP JUMP JUMPDEST PUSH0 PUSH1 0x20 DUP3 DUP5 SUB SLT ISZERO PUSH2 0x656 JUMPI PUSH2 0x655 PUSH2 0x398 JUMP JUMPDEST JUMPDEST PUSH0 DUP3 ADD CALLDATALOAD PUSH8 0xFFFFFFFFFFFFFFFF DUP2 GT ISZERO PUSH2 0x673 JUMPI PUSH2 0x672 PUSH2 0x39C JUMP JUMPDEST JUMPDEST PUSH2 0x67F DUP5 DUP3 DUP6 ADD PUSH2 0x614 JUMP JUMPDEST SWAP2 POP POP SWAP3 SWAP2 POP POP JUMP JUMPDEST PUSH0 PUSH1 0x20 DUP3 DUP5 SUB SLT ISZERO PUSH2 0x69D JUMPI PUSH2 0x69C PUSH2 0x398 JUMP JUMPDEST JUMPDEST PUSH0 PUSH2 0x6AA DUP5 DUP3 DUP6 ADD PUSH2 0x3E6 JUMP JUMPDEST SWAP2 POP POP SWAP3 SWAP2 POP POP JUMP JUMPDEST PUSH2 0x6BC DUP2 PUSH2 0x3FA JUMP JUMPDEST DUP3 MSTORE POP POP JUMP JUMPDEST PUSH0 PUSH1 0x20 DUP3 ADD SWAP1 POP PUSH2 0x6D5 PUSH0 DUP4 ADD DUP5 PUSH2 0x6B3 JUMP JUMPDEST SWAP3 SWAP2 POP POP JUMP JUMPDEST PUSH2 0x6E4 DUP2 PUSH2 0x3BF JUMP JUMPDEST DUP3 MSTORE POP POP JUMP JUMPDEST PUSH0 PUSH1 0x20 DUP3 ADD SWAP1 POP PUSH2 0x6FD PUSH0 DUP4 ADD DUP5 PUSH2 0x6DB JUMP JUMPDEST SWAP3 SWAP2 POP POP JUMP JUMPDEST PUSH32 0x4E487B7100000000000000000000000000000000000000000000000000000000 PUSH0 MSTORE PUSH1 0x22 PUSH1 0x4 MSTORE PUSH1 0x24 PUSH0 REVERT JUMPDEST PUSH0 PUSH1 0x2 DUP3 DIV SWAP1 POP PUSH1 0x1 DUP3 AND DUP1 PUSH2 0x747 JUMPI PUSH1 0x7F DUP3 AND SWAP2 POP JUMPDEST PUSH1 0x20 DUP3 LT DUP2 SUB PUSH2 0x75A JUMPI PUSH2 0x759 PUSH2 0x703 JUMP JUMPDEST JUMPDEST POP SWAP2 SWAP1 POP JUMP JUMPDEST PUSH0 DUP2 SWAP1 POP DUP2 PUSH0 MSTORE PUSH1 0x20 PUSH0 KECCAK256 SWAP1 POP SWAP2 SWAP1 POP JUMP JUMPDEST PUSH0 PUSH1 0x20 PUSH1 0x1F DUP4 ADD DIV SWAP1 POP SWAP2 SWAP1 POP JUMP JUMPDEST PUSH0 DUP3 DUP3 SHL SWAP1 POP SWAP3 SWAP2 POP POP JUMP JUMPDEST PUSH0 PUSH1 0x8 DUP4 MUL PUSH2 0x7BC PUSH32 0xFFFFFFFFFFFFFFFFFFFFFFFFFFFFFFFFFFFFFFFFFFFFFFFFFFFFFFFFFFFFFFFF DUP3 PUSH2 0x781 JUMP JUMPDEST PUSH2 0x7C6 DUP7 DUP4 PUSH2 0x781 JUMP JUMPDEST SWAP6 POP DUP1 NOT DUP5 AND SWAP4 POP DUP1 DUP7 AND DUP5 OR SWAP3 POP POP POP SWAP4 SWAP3 POP POP POP JUMP JUMPDEST PUSH0 DUP2 SWAP1 POP SWAP2 SWAP1 POP JUMP JUMPDEST PUSH0 PUSH2 0x801 PUSH2 0x7FC PUSH2 0x7F7 DUP5 PUSH2 0x3FA JUMP JUMPDEST PUSH2 0x7DE JUMP JUMPDEST PUSH2 0x3FA JUMP JUMPDEST SWAP1 POP SWAP2 SWAP1 POP JUMP JUMPDEST PUSH0 DUP2 SWAP1 POP SWAP2 SWAP1 POP JUMP JUMPDEST PUSH2 0x81A DUP4 PUSH2 0x7E7 JUMP JUMPDEST PUSH2 0x82E PUSH2 0x826 DUP3 PUSH2 0x808 JUMP JUMPDEST DUP5 DUP5 SLOAD PUSH2 0x78D JUMP JUMPDEST DUP3 SSTORE POP POP POP POP JUMP JUMPDEST PUSH0 SWAP1 JUMP JUMPDEST PUSH2 0x842 PUSH2 0x836 JUMP JUMPDEST PUSH2 0x84D DUP2 DUP5 DUP5 PUSH2 0x811 JUMP JUMPDEST POP POP POP JUMP JUMPDEST JUMPDEST DUP2 DUP2 LT ISZERO PUSH2 0x870 JUMPI PUSH2 0x865 PUSH0 DUP3 PUSH2 0x83A JUMP JUMPDEST PUSH1 0x1 DUP2 ADD SWAP1 POP PUSH2 0x853 JUMP JUMPDEST POP POP JUMP JUMPDEST PUSH1 0x1F DUP3 GT ISZERO PUSH2 0x8B5 JUMPI PUSH2 0x886 DUP2 PUSH2 0x760 JUMP JUMPDEST PUSH2 0x88F DUP5 PUSH2 0x772 JUMP JUMPDEST DUP2 ADD PUSH1 0x20 DUP6 LT ISZERO PUSH2 0x89E JUMPI DUP2 SWAP1 POP JUMPDEST PUSH2 0x8B2 PUSH2 0x8AA DUP6 PUSH2 0x772 JUMP JUMPDEST DUP4 ADD DUP3 PUSH2 0x852 JUMP JUMPDEST POP POP JUMPDEST POP POP POP JUMP JUMPDEST PUSH0 DUP3 DUP3 SHR SWAP1 POP SWAP3 SWAP2 POP POP JUMP JUMPDEST PUSH0 PUSH2 0x8D5 PUSH0 NOT DUP5 PUSH1 0x8 MUL PUSH2 0x8BA JUMP JUMPDEST NOT DUP1 DUP4 AND SWAP2 POP POP SWAP3 SWAP2 POP POP JUMP JUMPDEST PUSH0 PUSH2 0x8ED DUP4 DUP4 PUSH2 0x8C6 JUMP JUMPDEST SWAP2 POP DUP3 PUSH1 0x2 MUL DUP3 OR SWAP1 POP SWAP3 SWAP2 POP POP JUMP JUMPDEST PUSH2 0x906 DUP3 PUSH2 0x46B JUMP JUMPDEST PUSH8 0xFFFFFFFFFFFFFFFF DUP2 GT ISZERO PUSH2 0x91F JUMPI PUSH2 0x91E PUSH2 0x51D JUMP JUMPDEST JUMPDEST PUSH2 0x929 DUP3 SLOAD PUSH2 0x730 JUMP JUMPDEST PUSH2 0x934 DUP3 DUP3 DUP6 PUSH2 0x874 JUMP JUMPDEST PUSH0 PUSH1 0x20 SWAP1 POP PUSH1 0x1F DUP4 GT PUSH1 0x1 DUP2 EQ PUSH2 0x965 JUMPI PUSH0 DUP5 ISZERO PUSH2 0x953 JUMPI DUP3 DUP8 ADD MLOAD SWAP1 POP JUMPDEST PUSH2 0x95D DUP6 DUP3 PUSH2 0x8E2 JUMP JUMPDEST DUP7 SSTORE POP PUSH2 0x9C4 JUMP JUMPDEST PUSH1 0x1F NOT DUP5 AND PUSH2 0x973 DUP7 PUSH2 0x760 JUMP JUMPDEST PUSH0 JUMPDEST DUP3 DUP2 LT ISZERO PUSH2 0x99A JUMPI DUP5 DUP10 ADD MLOAD DUP3 SSTORE PUSH1 0x1 DUP3 ADD SWAP2 POP PUSH1 0x20 DUP6 ADD SWAP5 POP PUSH1 0x20 DUP2 ADD SWAP1 POP PUSH2 0x975 JUMP JUMPDEST DUP7 DUP4 LT ISZERO PUSH2 0x9B7 JUMPI DUP5 DUP10 ADD MLOAD PUSH2 0x9B3 PUSH1 0x1F DUP10 AND DUP3 PUSH2 0x8C6 JUMP JUMPDEST DUP4 SSTORE POP JUMPDEST PUSH1 0x1 PUSH1 0x2 DUP9 MUL ADD DUP9 SSTORE POP POP POP JUMPDEST POP POP POP POP POP POP JUMP INVALID LOG2 PUSH5 0x6970667358 0x22 SLT KECCAK256 SWAP15 SWAP8 STOP 0x24 PUSH7 0x7CE8EFA00D5A8E 0xD2 SLT 0xEB 0xDF PUSH11 0xBC402450619FD298CB3D7D 0xDC 0x4F PUSH11 0xF664736F6C634300081A00 CALLER "
				},
				"gasEstimates": {
					"creation": {
						"codeDepositCost": "512400",
						"executionCost": "infinite",
						"totalCost": "infinite"
					},
					"external": {
						"demo(string)": "infinite",
						"getBalance(address)": "3313",
						"myAddr()": "2552",
						"myStr()": "infinite",
						"payments(address)": "2823",
						"receiveFunds()": "22320",
						"transferTo(address,uint256)": "infinite"
					}
				},
				"methodIdentifiers": {
					"demo(string)": "939a79ac",
					"getBalance(address)": "f8b2cb4f",
					"myAddr()": "e665b266",
					"myStr()": "5a455c1c",
					"payments(address)": "e2982c21",
					"receiveFunds()": "005c33e1",
					"transferTo(address,uint256)": "2ccb1b30"
				}
			},
			"storageLayout": {
				"storage": [
					{
						"astId": 5,
						"contract": "remix1/Solidity/lesson4/lesson4.sol:Demo",
						"label": "payments",
						"offset": 0,
						"slot": "0",
						"type": "t_mapping(t_address,t_uint256)"
					},
					{
						"astId": 8,
						"contract": "remix1/Solidity/lesson4/lesson4.sol:Demo",
						"label": "myStr",
						"offset": 0,
						"slot": "1",
						"type": "t_string_storage"
					},
					{
						"astId": 11,
						"contract": "remix1/Solidity/lesson4/lesson4.sol:Demo",
						"label": "myAddr",
						"offset": 0,
						"slot": "2",
						"type": "t_address"
					}
				],
				"types": {
					"t_address": {
						"encoding": "inplace",
						"label": "address",
						"numberOfBytes": "20"
					},
					"t_mapping(t_address,t_uint256)": {
						"encoding": "mapping",
						"key": "t_address",
						"label": "mapping(address => uint256)",
						"numberOfBytes": "32",
						"value": "t_uint256"
					},
					"t_string_storage": {
						"encoding": "bytes",
						"label": "string",
						"numberOfBytes": "32"
					},
					"t_uint256": {
						"encoding": "inplace",
						"label": "uint256",
						"numberOfBytes": "32"
					}
				}
			},
			"userdoc": {
				"kind": "user",
				"methods": {},
				"version": 1
			}
		}
	}
}